:020000040800F2
:1000000070060020D5000008D11A00087D0B0008FA
:1000100000000000000000000000000000000000E0
:10002000000000000000000000000000B91D0008F2
:100030000000000000000000051D0008A5290008C0
:10004000E7000008E7000008E7000008E7000008F4
:10005000E7000008E7000008290B0008510B000822
:1000600000000000E7000008E700000800000000B2
:10007000E7000008E7000008E700000800000000B3
:10008000E7000008E700000800000000E7000008A3
:1000900000000000E7000008E7000008810B0008EE
:1000A00000000000E7000008E7000008E52900085C
:1000B000E700000800000000E70000080000000062
:1000C0000348854600F004FB004800475D07000830
:1000D000700600200448804704480047FEE7FEE71A
:1000E000FEE7FEE7FEE7FEE7B5290008C1000008CD
:1000F000F0B51FB488B00B990998002448400999BD
:10010000C00F490049080991C0070B9900904900A8
:1001100049080B9109990898A64608431CD00B99E9
:100120000A98084318D0099801244000420D48005D
:10013000410D099824050003000B204309900B98FA
:100140000003000B20430B9050181C49401800225C
:1001500001901446104605E0002001460DB0F0BDA8
:10016000032801DA034600E003239C46C11A0AAEC5
:100170000AE05F0008ADED5B4F00F75B7D430027B1
:10018000AA187C41491C5B1E6145F2DD410004ABAD
:100190005A522104120C0A43240C401C0828DFDBAD
:1001A000019802900099704601910090059B049A75
:1001B0000799069800F054F9D0E700000DFCFFFF06
:1001C000F0B50C465C4085B0E40FE40703944C00A6
:1001D00000266408590094464908024602962243C4
:1001E00021D062460A431ED06200570D4A000E031A
:1001F0002303550D012402462C492405781B1B0BB3
:10020000360B401823432643614600901C46501A83
:10021000B44103D30098401C009002E0921800986B
:100220005B41002803DA0020014605B0F0BD002044
:10023000012109050746864611E064461D46141B48
:10024000B54106D36546521BB341744607430C4380
:10025000A646CD0740084908284392185B41054649
:100260000D43EAD11046184313D06046194650405A
:100270007140084306D06046101AB34106D20122ED
:10028000002306E000220123DB0702E00122D24323
:100290005310009874460105381C6141029C039D6F
:1002A0000019694100F0CFF8BFE70000FD0300002E
:1002B000C217C10F504010B54018CA07962300213D
:1002C00000F088F810BDC20FD207400040080BD0E4
:1002D000C10D0723DB01C91840020905400A11437B
:1002E000C208400711437047002001467047CB0FFA
:1002F000DB07490010B5490802460A4307D00A0D3A
:1003000007240903E401090B121B002A01DC002069
:1003100010BDC900440F0C43C100E018D20580187D
:1003200000F050F810BD70B50446002903D000203D
:100330002022012310E0002801D00020C043C04645
:10034000C0460DE02546D5408D4205D30D4695406B
:10035000641B1D46954040191546521E002DF1DCC8
:10036000214670BDF0B51FB40646002082B0054698
:100370004024019100901BE0019922460F4630462F
:1003800000F0C8F9049A059B801A994110D31046D1
:100390001946224600F0AEF9361A8F4101972246DF
:1003A00001200021009F00F0A5F938184D41009070
:1003B0002046641E0028DFDC019B00982946324657
:1003C00007B0F0BD002904DA401C490001D1400803
:1003D0004000704770B40024050C05D110240004BF
:1003E00002D1002921D01124050E01D100020834C8
:1003F000050F01D10001241D850F01D18000A41C2F
:10040000002801DB4000641C002908D020252E1B99
:100410000D46F540A14000D00121294308430106C3
:100420001B1B000ADB1D02D5002070BC7047DB05DA
:10043000181880180029F8DA401C4900F5D170BC62
:1004400040084000704710B5002B08DA0024401C1B
:10045000614192185B411A4301D14008400010BD30
:10046000F0B51FB482B005460C0003D0084602F078
:10047000CFFF02E002F0CCFF203002460090214680
:10048000284600F037F9049B059A04460F461843A6
:100490001143084314D0184610431BD00098402144
:1004A0000A1A1846059900F035F905460E46009AD5
:1004B0000599049800F01EF9084305D0012004E0D6
:1004C0002046394607B0F0BD0020C11705430E4352
:1004D0002C43374300990E986305401A7905E40AC6
:1004E00000220C43FD0A0A3002D500200146E9E74C
:1004F0000105101969410C9C0D9D00196941FFF718
:10050000A2FFDFE7F0B507460846584087B0C00FA6
:10051000049048000E46590040084908BC1A88411A
:1005200005D2384631461E4617460B46024658004D
:10053000400810434CD0300D039040055900400D49
:10054000490D0590401A0290402872DA18030121E3
:10055000000B09050843019004980092002805D07B
:100560000199524200208841009201900298402156
:100570000A1A0199009800F0BDF805460C466B4632
:1005800007CB00F0D8F8C0197141039A0E0D002373
:10059000D71756401A467A40164344D0049A002A88
:1005A0002DD0029A012A039A15DC1205C01A914136
:1005B00001263605001C7141D20F059ED20700931B
:1005C000019202962A462346FFF74AFF07B0F0BD84
:1005D00038463146FAE71605224A0F46B218C01AC5
:1005E000B74101210905001C4F4100187F41114608
:1005F00018187941E20F10436D19644113E0E207C6
:100600006D0815436408C2071443039A01261205B6
:10061000C01A91413605001C7141CE074008304395
:100620004908C01851412A462346FFF70CFFCDE781
:10063000FFE7049801224000C117121A00238B41E2
:1006400004983146C417381AA141EEE730B40124AA
:10065000E407634030BC55E730B40124E40761404F
:1006600030BC4FE70000E0FF4A0009030123090BFB
:100670001B0519430A4B10B5520D9A4202DA0020AD
:10068000014610BD064B34339A4203DC9A1A00F03F
:1006900041F810BD034BD21800F02CF810BD00003B
:1006A000FF030000CDFBFFFF10B5002904DB012490
:1006B000E40740428C412146002B04DB1C46012309
:1006C000DB075242A341994200D1904210BD000085
:1006D000064C0125064E05E0E36807CC2B430C3C95
:1006E00098471034B442F7D3FFF7EEFC5C3E0008A5
:1006F0007C3E000810B5202A04DB0146203A9140D8
:10070000002010BD914020239C1A0346E34019436A
:10071000904010BD10B5202A04DB0846203AD04096
:10072000002110BD0B46D340D0402024A21A914096
:100730000843194610BD10B5202A06DBCB17084622
:10074000203A1041C1170B4306E00B461341D0403D
:100750002024A21A91400843194610BD80B50020FC
:1007600007490122D306C3580B50001DC028F8D1F9
:1007700050070449086002F04BFA002080BDC046D3
:100780000000002008ED00E0F0B581B000931646AF
:100790000F460546002400F0E9FE00281ED12B4636
:1007A000009D2648817B002918D106990422827376
:1007B000FE22134003704770466085818160806827
:1007C0000021017000F078FE1D48006814301D49BA
:1007D000086000F02BFE00F081FE0124204601B0ED
:1007E000F0BDC046F0B581B01E4617460D46044622
:1007F0000020009000F0BAFE00281CD10F48817B39
:10080000002918D10699012200928273FE22144019
:1008100004704570476086818160806800210170A6
:1008200000F04AFE0648006814300649086000F0EF
:10083000FDFD00F053FE009801B0F0BDC80000209F
:100840004C02002044020020F0B583B001AD022725
:10085000AF710124AC8040200190284600F01CFCC0
:1008600000200F4900F06EFC0726304602F09EF98A
:10087000304602F085F9AF71AC800820019028461F
:1008800000F00AFC6320C102204600F05BFC062455
:10089000204602F08BF9204602F072F903B0F0BD59
:1008A00001100100F0B587B0002606960596049663
:1008B00003960296019600F089FE0696022505959C
:1008C000049603950320029010200190344801AC57
:1008D000214600F051FC0696012703A8E0C00296CD
:1008E0004020019005200007214600F045FC0696B7
:1008F00003A8E0C00296082001903A4D2846214600
:1009000000F03AFC00F092FC03960297042001905C
:100910000496059606962846214600F02DFC07B061
:10092000F0BDC046F0B58BB000F05EFA0C270A9718
:1009300001260996089602240794069405941848FF
:1009400005AD294600F018FC0A9709960896079409
:10095000069405961248294600F00EFC00F006FBAE
:1009600000F022FB00F028FB00F0B0FD00F086FD57
:1009700000200490AA200390B0030290094801903F
:10098000094801A900F0BCFD02F01EF902F000F9CF
:1009900000F082FD00F052FD00F058FD0BB0F0BDFC
:1009A00000140050801A06000054004010B58EB0AC
:1009B00000240B94022008900A900D9409900C904A
:1009C000084808A900F0D8FB06940494012101917D
:1009D00060200090039432486A4600F04FFF0EB04A
:1009E00010BDC0460004005080B500F013FE00F0BA
:1009F00039FE00F02FFE00F013FE00F023FE80BD54
:100A000080B500F0E3FA00F0BFFA00F067FE13488B
:100A10000068134901400120C003081800F078FE67
:100A200000F06EFE0128FBD100F096FE00F0A4FE5F
:100A300000F03AFE0028FBD100F096FE00F0E0FD49
:100A400000F0AEFE00F090FB064800F0B1FE00F0B2
:100A50006BFE00F03BFE00F06FFE80BD100FFF1F2D
:100A6000FF1F000000366E0110B586B0002405940B
:100A7000049403940294019400F0B4FA01A90C7454
:100A80000C800294049405480390054800F0ACFEE5
:100A900000F094FE00F09CFE06B010BDFF030000C5
:100AA0000020004010B5044600F0AAFA1D48006876
:100AB000214600F0A5FF00F0C5FF00F0DDFF00F0CB
:100AC000D3FF00F0C7FF00F0E1FF00F047FF00F0A8
:100AD00039FF00F087FD00F085FD0424204600F07A
:100AE000E8FB204600F016FC204600F0FDFB204607
:100AF00000F0B2FB0824204600F0DBFB204600F0AB
:100B000009FC204600F0F0FB204600F0A5FB00F0B9
:100B100033FF00F02BFF00F037FF02F05FF802F028
:100B20003DF810BDC000002080B5082000F000FB9B
:100B3000002809D0082000F073FA04480121017050
:100B40004B20C0000C49088080BDC04649020020EF
:100B500080B5402000F0ECFA002809D0402000F0D9
:100B60005FFA0448012101704B20C000024908804F
:100B700080BDC046480200203E020020FEE7000083
:100B800010B59148006814309049086000F0FCFCF2
:100B900000280ED09348817B012903D0072903D078
:100BA000042906D1007802E001780120084300F012
:100BB00003FD00F0C3FC00282CD000F0C5FB894CDD
:100BC000A07B072806D0042810D0012822D10220BB
:100BD000A0731FE0A08900280BD0A089012814D1A0
:100BE000002000F0A9FB00F081FC13E00520A073B9
:100BF00010E000F033FC00F079FC00F02FFCA0685E
:100C0000012101700020A07304E0A089012080026E
:100C100000F092FB00F0A4FC00283CD0714CA07BBB
:100C200007280AD0062836D100F020FC00F03CFC52
:100C30000720A07300F052FC2DE0A08902281BD1F0
:100C400000F054FC00F0AEFC61684A1C6260087061
:100C5000A089401EA08100F0A5FC61684A1C62606A
:100C60000870A089401EA08100F0F8FBA068012157
:100C700001700020A0730EE0A08903280BD1002092
:100C800000F05AFB00F08EFC61684A1C626008703C
:100C9000A089401EA08100F071FC002823D0514C97
:100CA000A08900281FD0A07B07281CD1A089032879
:100CB00017D0022812D001286CD100F073FC6168B3
:100CC0004A1C62600870A089401EA08100F0C6FB2B
:100CD000A068012101700020A07304E0002000F052
:100CE0002BFB00F0ABFB00F055FC00281ED03D4C68
:100CF000A07B052808D003280CD0022816D16078E4
:100D000000F05AFC032003E0607800F055FC062058
:100D1000A0730BE0A08900282FD06068411E61609D
:100D2000007800F049FCA089401EA08100F00CFC76
:100D300000280DD000F012FB00F080FB00F086FBD5
:100D400000F0D4FB274800218173806802210170E4
:100D500000F000FC00280FD000F008FB00F038F88D
:100D600000F06CFB00F072FB00F0C0FB1D4800219E
:100D7000817380680421017010BD00F0F1FB002830
:100D80001FD000F063FB00F0B1FBA06801210170EF
:100D90000020BDE700F006FC61684A1C6260087034
:100DA000A089401EA08100F0DBFB01289BD100F050
:100DB000F9FB61684A1C62600870A089401EA0812E
:100DC00091E700F03BFBB1E74C0200204402002019
:100DD00080B500F07BFBFFF7A5FD02480021817381
:100DE00080BDC046C8000020F0B587B00027069738
:100DF0000597049703970297019700F01DFA0C20BE
:100E0000009006900124059404970225039502940E
:100E10000195134801AE314600F0AEF9204600F0CE
:100E200039FA00980690059404940395029701946A
:100E30000B48314600F0A0F900F0ECF9002801D091
:100E400007B0F0BD022000F025FA00F0F5F900F03F
:100E5000E1F90028F4D0781C082F0746F2D3EFE719
:100E60000014005080B500F0CDF9C0B280BD000084
:100E700034488178002901D0491E81707047C046EE
:100E8000052141432F4840180379011DC2789A4239
:100E900002D100200A707047032A0CD0022A12D017
:100EA000012A15D10120002B13D0032B11D0022AC7
:100EB00009D0032A0CD1581E022802D202200A703F
:100EC0007047022A04D1012B02D103200A70704717
:100ED00004200A707047C0461A4800210171C17091
:100EE000817041700170704780B5FFF7BBFF4142D0
:100EF0004141144802788A4202D002228270017075
:100F0000017842788A4213D08378002B10D1002ACE
:100F100005D1002903D096228270012206E0002A22
:100F200003D0002901D1032200E00022C2704170E9
:100F3000C178012904D18178002901D10221C17031
:100F400080BDC046D800002080B5002809D0BF2150
:100F500089004043000A4843000A001D00F0B8FC25
:100F600080BD002000F0B4FC80BD000081B00120F5
:100F700040050C490A6802430A6009680140009173
:100F8000009801B07047C04681B0012000070549B4
:100F90000A6802430A60096801400091009801B0A4
:100FA0007047C0463C1002400120400506490A68CF
:100FB00002430A607047C0460120400502490A68A2
:100FC00082430A607047C0462C10024081B013482B
:100FD00001680122114301600068104000900098F0
:100FE00001B0704781B00120C0030C490A68024378
:100FF0000A60096801400091009801B07047C0463E
:1010000081B00120800305490A6802430A6009682B
:1010100001400091009801B07047C0464010024066
:10102000474908607047C0460E490A6882430A6013
:101030007047C0460F490A6882430A607047C0463D
:1010400010490A6882430A607047C04611490A681D
:1010500082430A607047C04602490A6802430A6038
:101060007047C0468418024002490A6802430A6079
:101070007047C0460418024002490A6802430A60E9
:101080007047C0468018024002490A6802430A605D
:101090007047C04600180240B0B504460068217988
:1010A00000290ED0002814D06179022914D001291A
:1010B00015D000291AD1FFF7B7FF2068FFF7DCFF32
:1010C00012E0FFF7BDFF2068FFF7AEFF00252846BE
:1010D000B0BD00252846B0BDFFF7CEFF01E0FFF709
:1010E000AFFF2068FFF7B8FF002500E00125A079D9
:1010F00003280ED8784400794000874401020D117E
:10110000E5E72068FFF796FF2068FFF7BDFF284658
:10111000B0BDAD1C2846B0BD2068FFF797FF02E0C8
:101120002068FFF7B1FF2068FFF79EFF2846B0BD9B
:10113000034909680140091A484248417047C046BE
:101140000C180240B0B50A0AD2B20B0CDBB29340C5
:101150008907090F034C0D599D43904028430851BE
:10116000B0BDC046601802400248016801229143A8
:101170000160704700200240F0B581B00D46044682
:10118000096800292DD0002709E06A692046314608
:1011900000F06EF87F1C29680846F84021D001262F
:1011A000BE400E40F6D06A682046314600F078F81E
:1011B0006868401E012804D8AA682046314600F01D
:1011C0009FF82A692046314600F084F868680228B2
:1011D000E0D1FF2ED9D86A692046314600F032F8B6
:1011E000D8E76868401E012803D8EA68204600F066
:1011F0006BF8012001B0F0BD054800680007C00F82
:101200007047C046024800680007C00F7047C046DC
:101210001004005002480168012008407047C04691
:101220001014005003480421016070470148042154
:101230000160704728040050014802210160704796
:1012400028140050494349434A430F234B43016A42
:101250009943114301627047404340430F2141438A
:10126000024A13688B430343136070472000005009
:10127000090A494349434A430F234B43416A99436F
:10128000114341627047000001480421016070472A
:1012900018040050014908607047C04618140050F7
:1012A00049434A4303234B43016899431143016077
:1012B00070474043032141430522120713688B43C3
:1012C00040001843106070474A4343688B43134300
:1012D0004360704749434A4303234B43C1689943E2
:1012E0001143C16070470000404303214143034A5A
:1012F00013688B43034313607047C0460C000050D3
:1013000049434A4303234B43816899431143816016
:1013100070470000404303214143024802680A43EA
:101320000260704708000050012292020368934354
:101330000B43036070470000012189026F4A136864
:101340008B4303431360704781B095480168009157
:10135000009940680090009801B070470120800219
:101360008F490A6882430A607047C0460120000224
:101370008B490A6882430A607047C046F0B581B065
:10138000009316460F46044621493846FEF7CBFF28
:101390003F21C94362680A4002436260256A0D40EA
:1013A0001C4A511C8E4208D34B218A0042437D20A7
:1013B000C1001046FEF7B7FF164A401C28432062C2
:1013C000154D964204D9009D002D09D0192008E042
:1013D00071003846FEF7A7FF284211D104200FE024
:1013E0000320464338463146FEF79DFF0A49CA1C92
:1013F000012110420A4600D002462A43C803104386
:10140000E169064A0A400243E26101B0F0BDC0460C
:1014100040420F00A0860100FC0F00000030FFFFDB
:101420000168012291430160704700000120C00261
:1014300032490A6882430A607047C0460120800230
:1014400021490A6882430A607047C0460120400271
:101450001D490A6882430A607047C0460320400263
:1014600019490A6882430A607047C0460320400257
:1014700015490A6882430A607047C0460120C003CC
:101480001E490A6882430A607047C046016801220B
:101490000A43026070470000012000020A490A68FE
:1014A00002430A607047C0460320400206490A68AA
:1014B00002430A607047C0460320400202490A689E
:1014C00002430A607047C046045400400120C00334
:1014D0000A490A6802430A607047C04601200002B8
:1014E00006490A6802430A607047C046012040026C
:1014F00002490A6802430A607047C046005400402F
:10150000B0B584B00D460446FFF78AFF01A800F08D
:10151000D1F80CCD03992046083DFFF72FFFA968AD
:10152000204600F043F82046FFF7B0FFE968204668
:10153000FFF7FAFE012004B0B0BD000018480068B3
:101540008007C00F7047C046154800684005C00FAF
:101550007047C04612480068C005C00F7047C046BB
:101560000F4800684007C00F7047C0460248006837
:101570008007C00F7047C0461854004008480068F4
:101580004006C00F7047C04605480168012008406A
:101590007047C046024800680006C00F7047C0464A
:1015A0001454004008480068C0B270478268FE23A7
:1015B0009A430A438260704703490A68FF239A43AB
:1015C000101808607047C0461054004081B00B48A6
:1015D00001682322114301600068104000900098C8
:1015E00001B0704781B005480168012211430160D4
:1015F000006810400090009801B07047341002401D
:101600006A480349416000218160052101607047FB
:101610007FA903000E4801681022914301607047C2
:101620000B48016802229143016070470848016835
:1016300004220A430260704705480168042291436E
:1016400001607047024801680422914301607047BD
:1016500010ED00E00120800306490A6802430A6099
:101660007047C0460120400202490A6802430A60EE
:101670007047C046007000400F20010241480068DA
:1016800008407047072001033E4800680840704743
:101690000720C1021D4800680840704739480168AA
:1016A000382008407047C046364801683820084056
:1016B0007047C04610B5044600F046FB206000F0BD
:1016C00023FB606000F030FBA06010BD012000042F
:1016D0000E490A6882430A607047C0460120000232
:1016E0000A490A6802430A607047C0460C4800680D
:1016F000C00A1C210140014840587047743D000851
:10170000024800684005C00F7047C0460010024004
:1017100003490A68034B134003430B607047C046FC
:10172000041002400000FFFF0248016801229143BB
:10173000016070475C100240024801680122914339
:1017400001607047601002400248016801200840B3
:101750007047C0460C1002400F20000209490A6879
:1017600082430A607047C0460720000305490A68A3
:1017700082430A607047C0460248016807229143CD
:101780000160704708100240D0480168022291436E
:1017900001607047CD48016802220A430260704729
:1017A000CA48016802220A430260704710E000E064
:1017B000014908607047C046C00000200120C003F6
:1017C00002490A6802430A607047C046442000404C
:1017D0002948016801220A430260704741690122D9
:1017E0000A4342617047000070B50D460446016827
:1017F000D74EB04202D01E48844204D170208143AB
:101800006868084300E008461A498C4208DDB44283
:101810000CD0D0498C4209D0CF498C4206D024E06C
:1018200013498C4202D014498C421ED10321090273
:101830008843E96801432160A968204600F054F814
:101840002988204600F052F8B44205D0E648844288
:1018500002D0E648844203D1297C204600F048F8B3
:101860002046FFF7BBFF012070BD0146E3E7C046FD
:1018700000040040FF2B014000200040B0B50346AB
:101880000020FF2909DC012914D010291DD1184698
:10189000114600F063F90120B0BD01242502A942E0
:1018A0000ED02503A94210D11846114600F0ECF9DC
:1018B0002046B0BD1846114600F00CF90120B0BD1D
:1018C0001846114600F096F92046B0BD41637047B6
:1018D000014908607047C04634200040816370476A
:1018E000C163704701647047C1627047816270478D
:1018F0000163704781B03C480168009100994068DD
:101900000090009801B0704781B03748016800919D
:10191000009940680090009801B0704781B032484B
:1019200001680091009940680090009801B07047EC
:1019300081B02D480168009100994068009000989E
:1019400001B070474020C043274908607047C04637
:101950005148016880229143016070470120400393
:101960004D490A6802430A607047C0463D48016815
:1019700001220A43026070470120000246490A68BA
:1019800002430A607047C0464348016820220A4368
:10199000026070474048016880220A430260704735
:1019A000114800688007C00F7047C0460E480068A5
:1019B0004007C00F7047C0460B4800680007C00FC3
:1019C0007047C04608480168012008407047C0467B
:1019D000054800688006C00F7047C046024800688E
:1019E0000006C00F7047C046003801402A48006812
:1019F0000006C00F7047C0462A480068C0B2704752
:101A000070B5192250438900FEF78DFC0546642607
:101A10003146FEF788FC04466320C043604340190A
:101A2000000132303146FEF77EFC0F210140F022EA
:101A300002402001101880B240180149086070BDB2
:101A4000083801400120000313490A6882430A60F4
:101A50007047C0460320000202490A6882430A60B8
:101A60007047C04614380140032040020A490A6802
:101A700082430A607047C0460120400302490A6859
:101A800082430A607047C04610380140024801682E
:101A90000C220A43026070470C380140014908607B
:101AA0007047C0460438014081B008490A68009276
:101AB000401C01D30020C043009A002804D00A68CB
:101AC000D203D2171018FAD101B0704710E000E02D
:101AD00070470000F0B583B004460126F043226A47
:101AE000024022620A690240236A0327BB43134370
:101AF000086802904D681D436368A2697E4884426D
:101B000005D07E48844202D07D48844213D13802F9
:101B1000834370024E6901968F69CE6987431F43E4
:101B200073003B430C20854301984008C0002843C4
:101B30008D68AD00054363607320824302980243C1
:101B4000A261C9682046FFF7C1FE256203B0F0BD5F
:101B5000002C01400048014000440140F0B583B032
:101B60000446006A102290432062206A302290438B
:101B70000A695208520102430F684B681D01154360
:101B80006368A2695C4EB44205D05C4EB44202D098
:101B90005B4EB44219D10326B602B34348690290A2
:101BA0003E468F69C8690190BF00114838403746EA
:101BB0001843019BDB000343C02085430298400883
:101BC000C00128438D68AD010543636073200002A6
:101BD000824338021043A061C9682046FFF77EFEA9
:101BE000256203B0F0BDC0460048014000440140FA
:101BF000FCF7FFFFF0B585B004462148FF30226AAC
:101C000002402262032003900002226A8243086994
:101C1000400843021343086804904A6815021D43B4
:101C20006368E269344FBC4205D0344FBC4202D0F5
:101C3000334FBC4217D103980703BB434E6902964A
:101C40008E69CF69019737010E4E3E401E43019BBE
:101C50005B0133438002854302984008C002284359
:101C60008D68AD020543636073208243049802438C
:101C7000E261C9682046FFF733FE256205B0F0BD7A
:101C800000FEFFFFF0DFFFFFF0B583B00446012642
:101C90003003226A82432262256A636805C9029280
:101CA0008A680192E269144F0839BC4205D0134F8B
:101CB000BC4202D0124FBC4205D1B603B3438E6979
:101CC000B6011E4300E01E46666073231B029A4362
:101CD00000021043E061C9682046FFF703FE0320BD
:101CE00000038543019840084003284302990903F3
:101CF0000143216203B0F0BD002C014000480140C7
:101D0000004401407047000010B50446FFF7B4FCE2
:101D100080093C210140034840581F210140CC402C
:101D2000204610BD143D000810B50446FFF7AAFC7C
:101D3000000B8000034908581F210140CC40204679
:101D400010BDC046543D000810B5FFF7A7FC0321A5
:101D5000C841401E03280BD80D4CC046784400797A
:101D600040008744101201010120C403204610BD29
:101D700008480068C00A1C21014007484458FFF782
:101D800087FCC00AC440204610BD00F007F810BD13
:101D900000366E0104100240743D000880B5FFF764
:101DA000D3FC012801D1034880BDFFF79FFC400010
:101DB00080BDC046006CDC027047000070B5424D2B
:101DC0002878092800D97AE07844007940008744CF
:101DD000040C1A283746505A646C302000F0CCFCB2
:101DE00000286AD02878401C2870BA4EB11D002403
:101DF000204600F06DF8002863D02878401C287039
:101E0000F088C000F080B34C21460831012000F07A
:101E10005FF8002851D02878401C28702089800065
:101E20002081AC4C21460A31022000F051F80028F4
:101E300043D02878401C2870608907214143618184
:101E4000A44C21460C31032000F042F8002834D085
:101E50002878401C2870A08905214143A1819D4913
:101E60000E31042000F034F8002826D02878401CD9
:101E7000287098491031092000F02AF800281CD059
:101E80002878401C2870934912310A2000F020F86D
:101E9000002812D02878401C28708E48008A0B49F0
:101EA000884206D92878401C287000F063F9002881
:101EB00003D000202870012070BD002070BD0024D8
:101EC0002C70204670BDC046DD000020830C000051
:101ED000B0B582B00C460146164D2878022819D0BC
:101EE000012809D0002821D1302000F07DF80028F9
:101EF00019D02878401C28707648401D0090782022
:101F0000312102232246FEF73FFC00280BD028781F
:101F1000401C28706F484079002804D000202870A9
:101F2000012002B0B0BD002002B0B0BD002028707A
:101F300002B0B0BDDE000020F0B581B00446154F00
:101F40003878012813D000281DD115460E46614867
:101F5000C11C204600F020F8002818D03878401C1A
:101F6000387035405B49C878B0432843C870594839
:101F7000C178204600F038F8002808D000203870DA
:101F8000012001B0F0BD0020387001B0F0BD00208C
:101F900001B0F0BDDF00002010B582B00A46014656
:101FA000104C207801280DD0002814D14948401D3C
:101FB000009078200123FEF7E7FB00280FD020785F
:101FC000401C207043484079002808D00020207031
:101FD000012002B010BD0020207002B010BD002012
:101FE00002B010BDE000002070B582B00C46014682
:101FF000384E701D0090F21C782001252B46FEF70C
:10200000F1FB002801D0F47000E00025284602B062
:1020100070BDC04610B582B02D4C2078062852D82D
:102020007844007940008744030B151F2D3442008B
:10203000992000F0A1FB002842D02078401C20709D
:1020400024492C319920FFF7A7FF002838D02078A9
:10205000401C20701F492D31A220FFF79DFF002852
:102060002ED02078401C20701A4A501D0090263235
:10207000782086210223FEF787FB002820D02078D5
:10208000401C207013484079002819D02078401C4B
:102090002070FF4A501D00902832782088210323A9
:1020A000FEF772FB00280BD02078401C2070FC4803
:1020B0004079002804D000202070012002B010BD1B
:1020C000002002B010BD0020207002B010BDC0463C
:1020D000E1000020EC000020B0B50F4D2878012869
:1020E00009D0002812D1202000F046FB002811D092
:1020F0002878401C2870202001242146FFF774FF17
:10210000002807D0002028702046B0BD00242C7085
:102110002046B0BD0020B0BDE200002010B5144C38
:102120002078022814D0012809D000281DD12120B0
:1021300000F022FB002816D02078401C20702120BF
:10214000AA21FFF751FF00280DD02078401C2070F5
:1021500021202021FFF748FF002804D02078401CD0
:102160002070012010BD002010BD0020207010BD87
:10217000E3000020B0B5C54D2878212800D980E1C2
:102180004000C046784480884000874421002A00EF
:1021900034003C00460050005A0064006E007A0093
:1021A00084008F009A00A400AE00B900C300CD00E7
:1021B000D700E100EC00F70001010B0115011F0140
:1021C000280132013C01460150015A0163016B01B3
:1021D000202000F0D1FA002800D150E12878401CDE
:1021E000287020200121FFF7FFFE002800D146E1E2
:1021F0002878401C287000F077FB002800D13EE1D1
:102200002878401C287025201D21FFF7EDFE0028AE
:1022100000D134E12878401C287029200121FFF7E3
:10222000E3FE002800D12AE12878401C28704020D5
:102230008421FFF7D9FE002800D120E12878401C36
:10224000287045203C21FFF7CFFE002800D116E181
:102250002878401C28704F205021FFF7C5FE002829
:1022600000D10CE12878401C2870A22020210024F5
:102270002246FFF761FE002800D104E12878401CC7
:1022800028704120800000F077FA002800D1F6E0A5
:102290002878401C2870002480212046FFF7A4FEE7
:1022A000002800D1EFE02878401C28700420772116
:1022B0002322FFF741FE002800D1E0E02878401CEF
:1022C000287008208B21FFF78FFE002800D1D6E070
:1022D0002878401C28700D203221FFF785FE002849
:1022E00000D1CCE02878401C28700E20CF214F224E
:1022F000FFF722FE002800D1C1E02878401C28709A
:102300000F20FA21FFF770FE002800D1B7E02878EF
:10231000401C287010204921FFF766FE002800D1DC
:10232000ADE02878401C287011200621FFF75CFEE4
:10233000002800D1A3E02878401C28701220022138
:10234000FFF752FE002800D199E02878401C287041
:102350001320F021C022FFF7EFFD002800D18EE00E
:102360002878401C28701520C0214022FFF7E4FD8A
:10237000002800D183E02878401C287016205E21B8
:102380000E22FFF7D9FD002879D02878401C28704C
:102390001720C0210A46FFF7CFFD00286FD028780C
:1023A000401C2870182030210A46FFF7C5FD002880
:1023B00065D02878401C28702220F021C022FFF729
:1023C000BBFD00285BD02878401C28702320E0212A
:1023D000FFF70AFE002852D02878401C28702420DD
:1023E000C0210A46FFF7A8FD002848D02878401CE5
:1023F00028702B2038210A46FFF79EFD00283ED08A
:102400002878401C28702C2011210A46FFF794FDE3
:10241000002834D02878401C28704D200E210A2234
:10242000FFF78AFD00282AD02878401C28704E200B
:1024300090210A46FFF780FD002820D02878401C14
:10244000287051205E21FFF7CFFD002817D0287893
:10245000401C2870152000F08FF900280FD0287834
:10246000401C287015203F21FFF7BEFD002806D034
:10247000DB4801244470002028702046B0BD0020B5
:10248000B0BD00242C702046B0BDC046E400002042
:10249000EC000020D248C17E102008407047C046A2
:1024A000EC000020CE48017F202008407047C04645
:1024B000CB48017F102008407047C0462220C84901
:1024C000095C202008407047C549487800280CD096
:1024D0002E20085C3C2805D12F20085C502801D113
:1024E0000120704700204870704700207047C046A8
:1024F0002120BB49085C302202402220085C0C21CC
:10250000014088187047C046B548017F0220084046
:102510007047C046B248017F012008407047C0465E
:10252000F048017F082008407047C046ED48017F11
:10253000042008407047C04670B5104E307801281E
:1025400009D0002814D1232000F016F9002813D058
:102550003078401C30702320012500242946224673
:10256000FFF7EAFC002805D000203070284670BD37
:1025700000243470204670BD002070BDE5000020AE
:1025800010B5264C2078052844D8C04678440079F8
:1025900040008744020A141E2832132000F0ECF891
:1025A000002835D02078401C2070CE4919311320E6
:1025B000FFF7F2FC00282BD02078401C2070C9497E
:1025C0001C311820FFF7E8FC002821D02078401C9F
:1025D0002070C4491D311920FFF7DEFC002817D0F8
:1025E0002078401C2070BF491F311C20FFF7D4FC0D
:1025F00000280DD02078401C2070BA4920311D20C1
:10260000FFF7CAFC002803D000202070012010BD75
:10261000002010BD0020207010BDC046E600002044
:1026200010B53B4C207809286ED8C0467844007914
:1026300040008744040C16202A343E48525C0E2089
:1026400000F09AF800285DD02078401C2070A54941
:1026500014310E20FFF7A0FC002853D02078401C36
:102660002070A04915310F20FFF796FC002849D0B3
:102670002078401C20709B4916311020FFF78CFCFD
:1026800000283FD02078401C207096491731112037
:10269000FFF782FC002835D02078401C207091493B
:1026A0001F311C20FFF778FC00282BD02078401C1D
:1026B00020708C492E314520FFF76EFC002821D078
:1026C0002078401C207087492F314F20FFF764FC91
:1026D000002817D02078401C2070824924315120D6
:1026E000FFF75AFC00280DD02078401C20707D494F
:1026F00025315220FFF750FC002803D00020207025
:10270000012010BD002010BD0020207010BDC0466B
:10271000E70000202C207349085C704771488089CD
:102720007047C0466F4800897047C04680B56D4805
:10273000008A06494018FDF7BBFDFDF7C4FD044AB9
:10274000044BFDF73DFDFDF7D2FD80BDD1F8FFFF45
:1027500048E17A14AE471B406248C08905214143D5
:10276000503908B27047C0465E4840897047C0463D
:102770005C48C0887047C046B0B50446174D2878FD
:1027800001280BD0002817D15648C11C0120FFF7A3
:1027900003FC00280ED02878401C28705148C078CF
:1027A000210A0DD0012814D124208121FFF71CFC1F
:1027B00000280ED10020B0BD00242C702046B0BDF2
:1027C000012806D0FF2000242146FFF70DFC002839
:1027D000F4D0002028700120B0BDC046E8000020E1
:1027E000EC00002010B53E4C207808284DD8C0469B
:1027F0007844007940008744040C16202A344B5555
:102800005F001220FFF7B8FF002860D02078401C3E
:102810002070344918311220FFF7BEFB002856D033
:102820002078401C20702F491A311420FFF7B4FB88
:1028300000284CD02078401C20702A491B311520DC
:10284000FFF7AAFB002842D02078401C20702549C1
:102850001C311820FFF7A0FB002838D02078401C3E
:102860002070204C21461E311A20FFF795FB0146AF
:10287000002000290BD0A27FC021114029D040297F
:1028800029D0802903D1142026E00020207010BD1B
:10289000144921312A20FFF77FFB002817D0207828
:1028A000401C20700F4922312B20FFF775FB0028B8
:1028B0000DD02078401C20700A4923312C20FFF7CE
:1028C0006BFB002803D000202070012010BD0020E9
:1028D00010BD502000E02820A077012010BDC04688
:1028E0001C010020EC00002010B5234C20780528A6
:1028F0003FD8C0467844007940008744020A131C40
:10290000252E2020FFF738FF002830D02078401CEB
:10291000207020200121FFF767FB002827D02078B6
:10292000401C207023200121FFF75EFB00281ED0F1
:102930002078401C207024202021FFF755FB002820
:1029400015D02078401C207024204021FFF74CFB3C
:1029500000280CD02078401C207024208021FFF714
:1029600043FB002803D000202070012010BD002070
:1029700010BD0020207010BD1D01002080B5FEF7A5
:102980003FF8FEF731F8FDF78DFFFDF75DFFFEF72D
:102990006BF8FEF70BF8E1204002FEF783F8FDF735
:1029A000C1FF80BD02480168491C01607047C046F4
:1029B0004C02002007480168074A0A400749096895
:1029C0001143012253030B430360D00604490860FE
:1029D0007047C046041002400000FFFF040FFF1FB5
:1029E00008ED00E0B0B5FEF7F9FF002814D0584814
:1029F0000178584A1278531A012B03D0002A04D1C7
:102A0000FF2902D1FEF7A4FF06E0491C0170C8B2FD
:102A10005149085CFFF742F8FEF7DAFF00281BD0A7
:102A2000564C257854481F2D08D10078002809D02D
:102A3000FEF7E2FF2849485500200CE00078401BD3
:102A4000012803D111480121017005E0FEF7D4FFF0
:102A500021494855681C2070FEF7B4FF002801D0BA
:102A6000FEF766FFFEF79CFF002801D0FEF742FF4D
:102A7000FEF7A2FF002801D0FEF750FFFEF796FFF9
:102A8000002801D0FEF740FFB0BDC046580200202C
:102A900070B50246002000291BD0384B1B78364CFD
:102AA0000D4D06E036781670C9B2491CCEB28E4282
:102AB0000FD126781F2E05D1002B0BD000262670B3
:102AC0002E46EFE7761C9E4204D02670F6B2AE1971
:102AD000E8E770BD012070BD1E010020F0B581B097
:102AE00000292CD01A4A127800231A4C09E0751CD0
:102AF000954226D0184CA755164C25705B1C8B426E
:102B00000CD2C75C002F09D02678FF2EEFD1002A07
:102B100019D0FF25104C67550025EDE7FEF766FF3D
:102B20000024002810D10A490878401C0870C0B25F
:102B30000949085CFEF7B2FFFEF72CFF04E0002411
:102B400002E0012400E00124204601B0F0BDC046AF
:102B5000C50000206D0200203E01002006480178DB
:102B600006480078884202D81F22511A00E0C94363
:102B70000818C0B27047C046C400002059020020A7
:102B80001F21014001208840074908607047C04666
:102B90000120C005044908607047C0460120C006F6
:102BA000014908607047C04600E100E08007C00EA0
:102BB00040218140FF2282400248036893430B4337
:102BC0000360704704E400E0FF20000602490A6841
:102BD00082430A607047C04614E400E0FF2000060C
:102BE00003490A6882430120800710180860704773
:102BF00018E400E0BFF34F8F034804490160BFF3BE
:102C00004F8F00BFFDE7C0460CED00E00400FA0561
:102C1000FFF7B4FEFEF760F94B20C00022490880A0
:102C20003220FEF741FF21A000F0CAFB25A000F0F2
:102C3000C7FB2CA000F0C4FB2F49002008802F4DBB
:102C400028802F4E30802F4F3880F74C00E030BF67
:102C5000284600F059F8284800F04CFA304600F0B9
:102C60006DFA384600F07EFB0F4800882178002975
:102C7000EDD10028EBD1FEF7BFFA0028E7D0FFF72F
:102C80005BFC0028FBD00120FEF70EFFFEF77CFD69
:102C9000FEF7CCFC30BFFEF77DFDFEF7CDFCFFF765
:102CA00023FE0028FBD0D3E73E0200200A0A33535C
:102CB000315020323137303020506F7765722042EA
:102CC000616E6B000A506F776572656420627920CF
:102CD0005357363330362026205059333246303061
:102CE000324100000A544B57544C20323032342FBA
:102CF00030382F31300A00005202002050020020EC
:102D0000540200205602002010B5044600885528C1
:102D100000D963E04000C046784480884000874482
:102D200055005D005D005D005D005D005D005D00C3
:102D30005D005D005D005D005D005D005D005D00AB
:102D40005D005D005D005D005D0057005D005D00A1
:102D50005D005D005D005D005D005D005D00710077
:102D600078007F0086008D005D005D005D005D00E5
:102D70009B005D005D005D00B2005D00C7005D006E
:102D80005D005D005D005D005D005D005D005D005B
:102D90005D005D005D005D005D005D005D005D004B
:102DA0005D005D005D005D005D005D0046015D0051
:102DB0005D005D0050015D005D005D005D005D0136
:102DC0005D005D005D006B015D00780115202080D5
:102DD000FFF7D0F9002805D1002010BD0020208089
:102DE000032010BD9048012101709048006890496F
:102DF000884200D316E18F4801888FA000F0E0FAE6
:102E00001F202080FEF7DAFF002800D108E12020F3
:102E10002080FFF7B5FB002800D101E121202080B0
:102E2000FFF7E0FC002800D1FAE022202080FFF725
:102E3000F7FB002800D1F3E023202080FFF7EAF819
:102E4000002800D1ECE0FFF73FFB002809D181A06A
:102E500000F0B6FA28202080FFF78CF9002800D176
:102E6000DEE0FFF71FFB002803D1FFF75BFC3228F1
:102E700010D8FFF749FB002803D1FFF74BFB0028D0
:102E800008D02C20208022200A21FFF7ADF800284E
:102E900000D1C5E0FFF742FC322803D8FFF742FC1F
:102EA00033280AD3FFF7FEFA002806D12E2020800F
:102EB000FFF712F9002800D1B2E0FFF72FFC32280B
:102EC0000BD8FFF72FFC322807D8FFF729FB002883
:102ED00003D1FFF72BFB002803D04B20C00055493E
:102EE0000880FFF7DFFA002802D061A000F068FA3E
:102EF000FFF7DEFA002802D060A000F061FAFFF7C9
:102F0000DDFA002802D061A000F05AFAFFF708FBB2
:102F1000002802D061A000F053FAFFF707FB002859
:102F200002D064A000F04CFAFFF7EEFA002802D0BD
:102F3000664800F045FAFFF7EDFA002802D0644831
:102F400000F03EFAFFF7E6FB0146624800F038FA6F
:102F5000FFF70EFC0146604800F032FAFFF7E2FB93
:102F600001465E4800F02CFAFFF7FEFB01465C4884
:102F700000F026FAFFF7D2FB01465A4800F020FA8B
:102F8000FFF7EAFB0146584800F01AFAFFF7CEFBBC
:102F9000FDF799F9024655480B4600F011FAD24860
:102FA0000178002907D04621218000210170FFF718
:102FB000B5F8002834D0FA480078022808D14A2011
:102FC0002080FFF70FFC00282AD0F548002101706F
:102FD000FA480078022808D14F202080FFF77CF8BB
:102FE00000281DD0F54800210170532020800F4893
:102FF0000068801C3E4908600C4800683C490A682B
:1030000082420DD2084A002313705522228061307B
:1030100008600648006836490968814200D2E1E646
:10302000002010BDFFF7E6FD4A0200204C02002000
:1030300081E3FFFF3E0200200A0A54696D652062A9
:1030400065666F726520736C6565703A2564306DD6
:10305000730000000A0A5265496E697469616C69FF
:103060007A696E67205357363330362E2E2E000085
:103070000A4368617267696E672E00000A446973CB
:103080006368617267696E672E0000000A46756C9E
:103090006C20436861726765642E00000A506F728D
:1030A00074204331205061746820456E61626C6504
:1030B000642E00000A506F727420433220506174F5
:1030C0006820456E61626C65642E0000BD3D00089D
:1030D000D43D0008AE3D00082D3E0008EB3D000841
:1030E000433E0008013E0008173E0008943D0008DA
:1030F0005C02002070B588B004460088612808D0C2
:10310000002804D000202080032008B070BD61207A
:103110002080FFF723FD00280CD0FFF71FFD054698
:103120006E4630462946FFF7B3FC30462946FFF786
:10313000D5FCECE7002008B070BD0000F0B581B010
:1031400004460088C62800D1BCE0002804D0002036
:103150002080032001B0F0BDFDF78AFEFDF7C4FE1C
:103160005D4F3878002803D15C480021017001E0F0
:10317000401E3870012600252846FDF781FE0328F1
:1031800014D0022809D0012842D1544801780129DD
:1031900029D000293BD1067027E050480178022948
:1031A00012D0012924D10A2038702FE04C48067033
:1031B0004C480078012804D14C480178012901D1FC
:1031C00025E04948067023E03D70464F38780128D5
:1031D00010D14BA000F0F4F83D702846FDF7B4FE86
:1031E000FEF720F812E0022101700A2038700FE08B
:1031F00005700BE03EA000F0E3F83E70FEF744F8E7
:103200003E480078401CC0B2FDF79EFE3448057071
:10321000344E3078012810D1FFF73CF9002803D153
:10322000FFF766F9002808D039A000F0C9F835701A
:103230002846FDF789FEFDF7F5FF307801280FD10C
:103240002748007801280BD128480078012820D190
:103250002A490A7853087E2B19D8501C08701EE0A2
:103260001F48007801280FD134480188491C01808B
:1032700088B23349884218D332A000F0A1F8642004
:10328000FEF712FCFFF7B6FC2C4805800DE0002885
:1032900005D11A480178002901D0491E017017484C
:1032A0000078401CC0B2FDF74FFE2B480188002972
:1032B00001D0491E0180C620208028480068401C9B
:1032C000274908602548006825490968814200D2DD
:1032D00042E7002001B0F0BD620200206C02002035
:1032E000680200206B0200204002002069020020DA
:1032F0000A0A574C4544204F6E210A006A020020FA
:103300000A0A574C4544204F6666210A0000000017
:103310000A0A42617474657279204465706C657440
:10332000656421556E61626C6520746F20456E6125
:10333000626C6520574C45440A0A00006002002078
:10334000E90300000A0A526573657474696E672E9A
:103350002E2E2E2E2E0A0A003E0200204C020020A5
:1033600064020020B0B504460088DA2801D00028A5
:1033700012D10B4D2878012804D10AA000F020F8C2
:10338000022028700D4A13780120DA21012B01D187
:10339000022313702180B0BD032000212180B0BD25
:1033A000480200200A0A495251206576656E742051
:1033B0006F636375726564210A0000004902002092
:1033C00083B0B0B591B0044615A80EC015AA0092FE
:1033D00001AD2846214600F009F840212846FFF7B4
:1033E0007DFB11B0B0BC01BC03B0004737B514463B
:1033F0000846064B6A46214600F0EAF8044669464C
:10340000002000F081FC20463EBD0000093D000880
:103410002021020C01D010211046020A01D01046D2
:103420000839020901D01046091F820801D0104650
:10343000891E420801D0881E7047081A704702E0B2
:1034400008C8121F08C1002AFAD17047704700202F
:1034500001E001C1121F002AFBD17047F0B51FB473
:1034600086B00998089A030D0021024314D05148F0
:10347000514A1818504305141198012810981AD071
:10348000281A401C00264D4F4D490096019104908A
:10349000002812DA444211E01198012449A30128BE
:1034A00001D11098C1430698119A84600360C260EC
:1034B00041600BB0F0BD4042E4E704462105002026
:1034C0003F4A001C51410391029012E0E00707D0EF
:1034D00032463B4601990098FCF70AFE01910090A4
:1034E00032463B4610461946FCF702FE06460F469A
:1034F0006410002CEAD10498039B0028029A0999D1
:10350000089806DAFCF7F4FD019B009AFCF7F0FD41
:1035100005E0FCF755FE019B009AFCF751FE0446BE
:103520000E460022284BFDF7BFF803D80020C04309
:10353000014607E00022254B20463146FCF7E2FF1A
:10354000FDF792F8102409E0002C0ADB0A22002380
:10355000FCF708FF079B30321A55641E02460A43E7
:10356000F2D11122641C079B121B1C19119B012B09
:1035700003D0012308430ED10AE0084304D01120F0
:1035800010900020119077E71098151A6D1E0BE02F
:103590001098824202DD00236D1C03E0824201DAB2
:1035A00000236D1E002BEED0069811998260C16039
:1035B00030C07EE701FCFFFF104D0000000014400A
:1035C0000000F03F300000000000F0430000E03F4A
:1035D000FFB597B00646002518E2252877D10024CC
:1035E0002746FD49049400E00443761C327801200C
:1035F000203A90400842F7D130782A280ED0022293
:10360000307801463039092916D804990A235943DC
:10361000303940181443761C0490F1E7189802C81A
:1036200004911890002904DA012040030443484221
:10363000049002200443761C30782E2814D10420F4
:1036400004437078761C2A2809D11898761C80C803
:10365000189009E00A214F43303FC719761C307893
:10366000014630390929F5D930786C2810D006DCAC
:103670004C281AD068280ED06A2817D104E0742884
:1036800013D07A2812D110E00120400504430CE049
:103690000121090501E0032109050C4371788142EC
:1036A00003D1012000052418761C761C3078119077
:1036B00066280BD013DC58287DD009DC00287BD08D
:1036C0004528F6D04628F4D047281AD1A5E118E0BD
:1036D000632835D0642870D0652812D19DE1702808
:1036E0006CD008DC6728F1D069287BD06E280DD01B
:1036F0006F2806D1BAE073282ED0752871D07828AB
:1037000059D01A9A199990476D1C7EE16002400FBA
:10371000022809D003280DD00428189801680DD07C
:103720000D60001D189070E11898EA1701680D608F
:103730004A60F6E7189801680D80F2E70D70F0E72F
:1037400018986A4601781172001D18900020507276
:1037500002A80090012005E0189802C818900020E7
:103760000091C04361070DD5002101E00199491C7A
:103770000191B94212DA8142F8DB009A515C0029CA
:10378000F4D10BE0002101E00199491C0191814233
:10379000FADB019A0099895C0029F5D10199049816
:1037A0001A9B471A21463846199A00F097FA019950
:1037B000401945180BE04FE02CE113E04EE0009873
:1037C00000990078491C00911A9A1999904701981C
:1037D000401E0190401CF2D1214638461A9B199A8E
:1037E00010E137E00A200021009001916002410FB2
:1037F000022907D0189A01CA1892C21794460329C1
:1038000008D00AE01898C01DC108C90005C9189160
:10381000944607E000B2C2179446042902D140B290
:10382000C1178C4600226146944506DA0A460021FB
:10383000404291418C462D2102E0210504D52B21E7
:103840006A461173012103E0E10701D02021F7E767
:10385000029155E00A200AE0102008E010200090B4
:103860000021042004430191082703E008200021DF
:10387000019100906002410F022907D0189A01CAF5
:10388000189200229446032908D008E01898C01D19
:10389000C108C90005C91891944603E080B2042903
:1038A00000D1C0B200210291210729D511997029B8
:1038B00006D0009A1021019B4A401A4305D00EE021
:1038C00040216A461173012108E06146014306D098
:1038D00030216A4611731199517302210291009AA5
:1038E0000821019B4A401A430AD16146014301D194
:1038F000610705D530216A46117301217F1E0291AF
:103900001199582904D035A10E910DA90D910DE002
:1039100037A1F9E76146019B009AFCF723FD0E9B56
:103920008C469B5C0D9A521E0D92137061460143AA
:10393000F0D10D9805A9081A20300190600703D531
:1039400001200004844300E001270198874201DD43
:10395000381A00E0002001990090411802980918D7
:103960000498401A0490E00306D421461A9B199A41
:10397000049800F0B3F94519002706E003A81A9A45
:10398000C05D199990476D1C7F1C02988742F5DB3A
:10399000E0030CD521461A9B199A049800F09EF971
:1039A000451904E01A9A3020199990476D1C009926
:1039B000481E00900029F5DC08E00D980D9900786C
:1039C000491C0D911A9A199990476D1C0199481E2E
:1039D00001900029F1DC63E1092801003031323324
:1039E000343536373839616263646566000000003B
:1039F0003031323334353637383941424344454625
:103A00000000000000F05AF94519761C30780028B3
:103A100000D0E2E528461BB0F0BD600700D40627C1
:103A20001898C01DC108C90048680A680831C30F4A
:103A3000DB071891190001D09CA108E0210501D5F0
:103A40009BA104E0E10701D09AA100E09AA1430004
:103A500011985B08109165280CD006DC452809D028
:103A600046281DD0472841D141E0662818D0672854
:103A70003CD13CE00021112F01DB112000E0781C3B
:103A80000191009008A911A8FFF7E8FC139905918E
:103A90000021119A15927F1C12980197009150E015
:103AA0000120C00703900120019008A9009711A8E8
:103AB000FFF7D4FC139A149905920022119B0092EF
:103AC00012981593059A0192002901D0104602E040
:103AD000791C40180190381A01D5019804E0404241
:103AE000401E0090781C0190C01B029043E0012F03
:103AF00000DA01270021112F01DD112000E03846F6
:103B00000191009008A911A8FFF7A8FC139905914D
:103B1000119A0021129815920091019721070CD457
:103B20000599B94201DB019900E00191012904DD09
:103B3000159A491E515C302906D0B84201DA011DA0
:103B400005DA0121029115E00199491EEDE70028EF
:103B500005DC0099411800910199091A03E0019AC6
:103B6000411C914200DD01910099401A401C0290D5
:103B70000120C0070390200706D4029901988142D2
:103B800002DB0020C043029000206946C87707AFDF
:103B9000012103980337C907884224D002201190DD
:103BA0002B201290039800280CDA404203902D201D
:103BB000129007E00A210398FCF7B5FB30317F1E15
:103BC000039039701199481E11900029F2DC039876
:103BD0000028EFD1791E1298087030782021084013
:103BE0004530BF1E387006A8C01BC01D039010983A
:103BF0000078002800D00120019941180298C017D0
:103C00000918039809180498401A401E0490E0030C
:103C100006D421461A9B199A049800F05FF84519BA
:103C200010980078002803D01A9A199990476D1CB3
:103C3000E00324D521461A9B199A049800F04EF807
:103C400045191CE00098002807DB00990598884278
:103C500003DD1598405C199901E0199930201A9AF2
:103C6000904700986D1C401C00900298401E0290E6
:103C7000002804D11A9A2E20199990476D1C019999
:103C8000481E01900029DDDC05E038781A9A7F1C77
:103C9000199990476D1C0399481E03900029F4DC84
:103CA00021461A9B199A0498ACE600002D000000EA
:103CB0002B0000002000000000000000F8B50446C2
:103CC00000251E461746880404D405E03946202006
:103CD000B0476D1C641EF9D52846F8BDFFB50446F3
:103CE000002581B01E46C80301D5302700E02027FB
:103CF000880404D505E038460399B0476D1C641E5E
:103D0000F9D5284605B0F0BD0A68531C0B60107049
:103D100070470000000000000000000000000000EC
:103D20000000000000000000000000000000000093
:103D3000000000000100000002000000030000007D
:103D4000040000000600000007000000080000005A
:103D5000090000000000000000000000000000005A
:103D6000000000000100000002000000030000004D
:103D70000400000000093D0000127A000024F40055
:103D80004086510100366E0100093D0000093D00EA
:103D900000093D000A436869702054656D707261C6
:103DA000747572653A252E3266A1E3430A000A4310
:103DB000617061636974793A25642525000A506F42
:103DC0007274204131205061746820456E61626CCC
:103DD00065642E000A506F72742041322050617465
:103DE0006820456E61626C65642E000A506F7274C3
:103DF0004275732043757272656E743A25646D4125
:103E0000000A426174746572792043757272656E3E
:103E1000743A25646D41000A4E54432054656D7018
:103E20007261747572653A2564A1E343000A506FAC
:103E3000727442757320566F6C746167653A2564BD
:103E40006D56000A4261747465727920566F6C7405
:103E50006167653A25646D5600000000803E0008E9
:103E600000000020C80000003E340008483F000861
:103E7000C8000020A80500004E3400080000000023
:103E80000000000000000000000000000000000032
:103E90000000000000000000000000000000000022
:103EA0000000000000000000000000000000000012
:103EB0000000000000000000000000000000000002
:103EC00000000000000000000000000000000000F2
:103ED00000000000000000000000000000000000E2
:103EE00000000000000000000000000000000000D2
:103EF00000000000000000000000000000000000C2
:103F000000000000000000000000000000000000B1
:103F100000000000000000000000000000000000A1
:103F20000000000000000000000000000000000091
:103F30000000000000000000000000000000000081
:083F400000127A001FFF0000CF
:04000005080000C12E
:00000001FF
