:020000040800F2
:10000000A8060020D5000008E9180008890E00089D
:1000100000000000000000000000000000000000E0
:10002000000000000000000000000000511900085E
:100030000000000000000000EB1800085933000821
:10004000E7000008E7000008E7000008E7000008F4
:10005000E7000008E7000008350E0008550E00080C
:10006000000000001D0E0008E7000008000000006E
:10007000E7000008E7000008E700000800000000B3
:10008000E7000008E700000800000000E7000008A3
:1000900000000000E7000008E7000008A50E0008C7
:1000A00000000000E7000008E7000008993300089E
:1000B000E700000800000000E70000080000000062
:1000C0000348854600F0F6FA004800470D0800088E
:1000D000A80600200448804704480047FEE7FEE7E2
:1000E000FEE7FEE7FEE7FEE769330008C10000080F
:1000F000D2B201E00270401C491EFBD270470022C0
:10010000F6E710B513460A4604461946FFF7F0FF16
:10011000204610BD70B502464A40D50F40004A0047
:10012000ED0740085208002814D0002A12D0C40D50
:10013000D30D41020120C0055202490A520AE41AB5
:10014000091812187D34914201D3641C00E0490063
:10015000002C01DA002070BD0023914201D3891ADE
:100160000343400849000028F7D100290AD09142F2
:1001700002D10121C90705E0914201D2012101E02C
:100180000121C943E005C018401900F08BF870BD8B
:100190000122D207002800DB101A002900DB511AC7
:1001A000814201D801207047002070470122D20708
:1001B000002800DB101A002900DB511A814201D30C
:1001C0000120704700207047C217C10F504010B582
:1001D0004018CA079623002100F06CF810BDC20F2A
:1001E000D207400040080BD0C10D0723DB01C9181E
:1001F00040020905400A1143C208400711437047F5
:1002000000200146704770B50446002903D0002045
:100210002022012310E0002801D00020C043C04666
:10022000C0460DE02546D5408D4205D30D4695408C
:10023000641B1D46954040191546521E002DF1DCE9
:10024000214670BDF0B51FB40646002082B00546B9
:100250004024019100901BE0019922460F46304650
:1002600000F050FA049A059B801A994110D3104669
:100270001946224600F036FA361A8F410197224677
:1002800001200021009F00F02DFA38184D41009008
:100290002046641E0028DFDC019B00982946324678
:1002A00007B0F0BD002904DA401C490001D1400824
:1002B0004000704770B40024050C05D110240004E0
:1002C00002D1002921D01124050E01D100020834E9
:1002D000050F01D10001241D850F01D18000A41C50
:1002E000002801DB4000641C002908D020252E1BBB
:1002F0000D46F540A14000D00121294308430106E5
:100300001B1B000ADB1D02D5002070BC7047DB05FB
:10031000181880180029F8DA401C4900F5D170BC83
:100320004008400070470000F0B5074608465840B6
:1003300087B0C00F049048000E4659004008490895
:10034000BC1A884105D2384631461E4617460B4630
:1003500002465800400810434CD0300D0390400531
:100360005900400D490D0590401A0290402872DA5C
:1003700018030121000B090508430190049800921D
:10038000002805D001995242002088410092019036
:10039000029840210A1A0199009800F0A3F9054635
:1003A0000C466B4607CB00F0BEF9C0197141039AA9
:1003B0000E0D0023D71756401A467A40164344D0F4
:1003C000049A002A2DD0029A012A039A15DC1205FC
:1003D000C01A914101263605001C7141D20F059EBD
:1003E000D2070093019202962A46234600F0BBF9F9
:1003F00007B0F0BD38463146FAE71605224A0F46E7
:10040000B218C01AB74101210905001C4F4100185C
:100410007F41114618187941E20F10436D1964416C
:1004200013E0E2076D0815436408C2071443039AFA
:1004300001261205C01A91413605001C7141CE07F4
:10044000400830434908C01851412A46234600F06D
:100450007DF9CDE7FFE7049801224000C117121A89
:1004600000238B4104983146C417381AA141EEE7A6
:1004700030B40124E407634030BC55E730B40124B4
:10048000E407614030BC4FE70000E0FFF0B51FB467
:1004900088B00B990998002448400999C00F490079
:1004A00049080991C0070B990090490049080B9130
:1004B00009990898A64608431CD00B990A98084346
:1004C00018D0099801244000420D4800410D0998B8
:1004D00024050003000B204309900B980003000B38
:1004E00020430B9050181C494018002201901446DC
:1004F000104605E0002001460DB0F0BD032801DAEA
:10050000034600E003239C46C11A0AAE0AE05F00DE
:1005100008ADED5B4F00F75B7D430027AA187C41D7
:10052000491C5B1E6145F2DD410004AB5A522104B7
:10053000120C0A43240C401C0828DFDB01980290AF
:100540000099704601910090059B049A07990698BE
:1005500000F009F9D0E700000DFCFFFFF0B50C46F4
:100560005C4085B0E40FE40703944C000026640867
:1005700059009446490802460296224321D0624619
:100580000A431ED06200570D4A000E032303550D87
:10059000012402462C492405781B1B0B360B4018FE
:1005A00023432643614600901C46501AB44103D3AE
:1005B0000098401C009002E0921800985B410028CF
:1005C00003DA0020014605B0F0BD00200121090535
:1005D0000746864611E064461D46141BB54106D306
:1005E0006546521BB341744607430C43A646CD07EC
:1005F00040084908284392185B4105460D43EAD15B
:100600001046184313D060461946504071400843C5
:1006100006D06046101AB34106D20122002306E03C
:1006200000220123DB0702E00122D243531000988D
:1006300074460105381C6141029C039D0019694103
:1006400000F084F8BFE70000FD0300004A00090342
:100650000123090B1B0519430A4B10B5520D9A4291
:1006600002DA0020014610BD064B34339A4203DC07
:100670009A1A00F047F810BD034BD21800F032F878
:1006800010BD0000FF030000CDFBFFFF10B50029E7
:1006900004DB0124E40740428C412146002B04DBAB
:1006A0001C460123DB075242A341994200D19042EC
:1006B00010BD00001CB5094800900948019005468E
:1006C0000126009C05E0E36807CC33430C3C9847C7
:1006D0001034AC42F7D3FFF7F7FC00001C4D0008C4
:1006E0003C4D000810B5202A04DB0146203A914019
:1006F000002010BD914020239C1A0346E34019437B
:10070000904010BD10B5202A04DB0846203AD040A6
:10071000002110BD0B46D340D0402024A21A9140A6
:100720000843194610BD10B5202A06DBCB17084632
:10073000203A1041C1170B4306E00B461341D0404D
:100740002024A21A91400843194610BD10B5002B71
:1007500008DA0024401C614192185B411A4301D120
:100760004008400010BDF0B51FB482B005460C0033
:1007700003D0084603F0DAFC02E003F0D7FC203097
:100780000246009021462846FFF7ACFF049B059ADD
:1007900004460F4618431143084314D0184610432B
:1007A0001BD0009840210A1A18460599FFF7AAFFA6
:1007B00005460E46009A05990498FFF793FF0843F3
:1007C00005D0012004E02046394607B0F0BD0020E6
:1007D000C11705430E432C43374300990E98630518
:1007E000401A7905E40A00220C43FD0A0A3002D5BA
:1007F00000200146E9E70105101969410C9C0D9D97
:1008000000196941FFF7A2FFDFE7000080B5002073
:1008100007490122D306C3580B50001DC028F8D148
:1008200050070449086002F0A3FE002080BDC046C6
:100830000000002008ED00E0F0B50446B34DA869C3
:1008400086070020002E03D4B44E3778002F00D046
:10085000F0BD069804273770FE273C40B470F17055
:1008600072603381F060F068002101700320400263
:100870006968014369600120C1022A688A432A60CD
:1008800001022A680A432A60F0BDC046F0B581B073
:1008900004469E4DA86986070020002E1FD49F4E57
:1008A0003778002F1BD10798009001203070FE2769
:1008B0003C40B470F170726033810099F160F1686E
:1008C00000220A70032149026A680A436A60C10271
:1008D0002A688A432A6001022A680A432A6001B012
:1008E000F0BDC046F0B583B001AC0227A771012668
:1008F000A680402000900190204600F04FFD30047B
:10090000144D696881436960134A106813490840AF
:10091000B10740181060804980200860A771A68048
:1009200008200190204600F039FD032000062968C8
:1009300081430A480818401C2860FF200004064A2A
:1009400011688143B005081810600098724908606A
:1009500003B0F0BD6018024004E400E0FFFFFF00B8
:10096000F0B587B06C4618212046FFF7C8FB1E483B
:1009700001682322114301600068104006900026A0
:1009800005960225049503960295032001901020F8
:10099000009006985B48214600F050FD059601271F
:1009A00002A8E0C0019640200090052000072146E3
:1009B00000F044FD059602A8E0C0019608200090D2
:1009C000684D2846214600F039FD0420A8620197B1
:1009D000009005960496039602962846214600F05C
:1009E0002DFD07B0F0BDC04634100240F0B599B0FF
:1009F00000F000FC0C20189001241794169402209B
:100A000004901590149013903E4D13AE2846314635
:100A100000F014FD13942846314600F00FFD6005E8
:100A2000394E3169014331613169014005910599C0
:100A3000316801433160316881433160E003334DF7
:100A400029680143296029688143296000201290A8
:100A500007460390AA201190A00310902C480F90F5
:100A60000FA9284600F044FDFF2108060B4601911E
:100A7000284AD1688143D160E005E7490860200237
:100A8000696801436960A002696881436960610225
:100A90000291686888436860FA4807708372F0685A
:100AA0002043F060F06820400590059805AF2421B0
:100AB0003846FFF724FB20030E9080200A90102078
:100AC0000790174E304621463A4600F03DFC154847
:100AD000016820220A43026010353561B06804992C
:100AE0000843B060019800020A4A1168814311600E
:100AF000C948029901600C4804600398E1494870B4
:100B000019B0F0BD001400502C10024000540040F9
:100B1000801A060008E400E000E100E0E8000020A0
:100B2000000002401C0001407C02002010B58EB085
:100B300000240B94022008900A900D9409900C90C8
:100B4000084808A900F07AFC069404940121019158
:100B50006020009003945B486A4600F09BFD0EB055
:100B600010BDC0460004005010B50C4801681022AA
:100B70009143016001214A02094B1C6814431C6027
:100B800089031A680A431A600168022291430160CE
:100B9000016804229143016010BDC04610ED00E0E1
:100BA0000070004070B582B0294C216C01200143D7
:100BB0002164216C0140009100990107E26B0A4316
:100BC000E263E26B0A4001920199010222680A4342
:100BD000226020490968204A0A40204D691C636848
:100BE0000B40D118C2038918616021684905FCD502
:100BF0000F210902A2688A43A260A26807218A43E2
:100C0000A260A2689206520FFBD10903A2688A4330
:100C1000A2601349134A4A6000228A6005220A60D2
:100C20000A68022313430B60C6430F480168314032
:100C300001600E4800F0E8FCE06D3040E06520689F
:100C400028402060206E3040206602B070BDC04653
:100C500000100240100FFF1FFF1F0000FFFFFEFFEC
:100C600010E000E07FA903000020024000366E0182
:100C7000F0B587B001AC14212046FFF740FA0126F9
:100C8000F7030E4801683943016000212174218077
:100C90000068384006900491029109480390069834
:100CA000084D2846214600F0B5FC686C384368645E
:100CB00028683043286007B0F0BDC04640100240AD
:100CC000FF03000000200040F0B587B00127B90302
:100CD0004C4BDA680A43DA60DA680A4004924A49FF
:100CE000096819224A4381001046FFF78CFA05462D
:100CF00064263146FFF787FA0446444860434019AA
:100D0000000132303146FFF77EFA0F22029201468F
:100D10001140F02303402001181880B241180498B4
:100D20003B4A916038030390D1688143D1607903D5
:100D300013698B43136103235C02D568A543D56017
:100D40001B0254699C435461D3680C241C43D46037
:100D5000D3680B43D36040200190C54315602948F8
:100D600001683943016001683940059105990168BE
:100D700039430160016839400691069905210E0743
:100D800031682020014304460090102081433160E7
:100D9000B16830230B43B360F1680143A143F160B4
:100DA00002990802336A83433C02181930623068A2
:100DB0008023184328403060B068C0250543B560E3
:100DC000F068019D28439843F0600803336A834329
:100DD000039818183062D0682043D06050693843B7
:100DE0005061D06800990843D060FF20000609498F
:100DF0000A688243B80710180860F80606490860B8
:100E000007B0F0BD34100240C00000209CFFFF0F6F
:100E10000038014018E400E000E100E004484168C7
:100E20000122914341600260F14802214170704704
:100E3000040002400E480168090708D50821016036
:100E40000348012101704B20C0000B490880704706
:100E50008102002006480168490608D5402101604A
:100E60000448012101704B20C000034908807047ED
:100E70000C18024080020020C4000020DC480078EA
:100E80007047C046E8000020BFF34F8F0348044975
:100E90000160BFF34F8F00BFFDE7C0460CED00E0DF
:100EA0000400FA05F0B583B0C54C6069C00712D0E4
:100EB000CF480178012903D0072903D004290AD19A
:100EC000807802E08178012008432169FF22914364
:100ED000C0B2081820610122550290020190616998
:100EE000890732D5616902910299A169029102993B
:100EF000BF490B78072B07D0042B03D0012B24D13B
:100F000002231BE0052319E00B89002B09D00B8974
:100F1000012B15D12168AB4801402160216829438C
:100F200012E06368A84F3B40636023682B43236053
:100F300063683B406360CB681A7000230B7004E069
:100F400009892168019801432160110263695B07E7
:100F500023D463695B067FD5A54B1E89002E7BD009
:100F60001E78072E78D11F89032F71D0022F69D0E8
:100F7000012F00D00EE120695F687E1C5E60387032
:100F80001E89761E1E81032676026768B743676056
:100F9000DE68327000261E705EE0954B1F78032FCE
:100FA00030D0072F0FD0062FD3D103277F026668DA
:100FB000BE43666066683E43666007261E7023680F
:100FC0000B432360C5E71E89022E2BD126682E43D2
:100FD000266020695F687E1C5E6038701E89761E00
:100FE0001E8120695F687E1C5E6038701E89761ED7
:100FF0001E81032676026768B7436760DE68327039
:1010000000260DE05E78022EA3D166686F48064088
:10101000666026682E432660DE68327000265E70A9
:101020001E7096E71E89032E93D1266865480640F8
:10103000266020695F687E1C5E6038701E89761E9F
:101040001E8186E723685F4803402360636801E0F0
:1010500063685C480340636063691B0636D4626959
:101060000198024213D06069564A1040606160687E
:10107000104060606068554A1040606020682843F6
:1010800020605B4800220270C06802220270606922
:10109000084219D0606988436061FFF7A7FC544893
:1010A000002101704170FF2282726268454B1A4034
:1010B00062606268454B1A40626022682A4322607F
:1010C0000170C0680421017003B0F0BD484B1F7867
:1010D0007E1E022E0ED3032F33D0052FBFD1DA7818
:1010E00028462569FF26B543AA180546226106222F
:1010F0001A70B4E7DE7827692846FF25AF43BD198B
:10110000256103251D701D89022D0546A7D3304D8D
:101110002E68092737431626B7432F602D4F3D68A9
:101120002D4E2E4010363E605D68FD601B897D6847
:10113000994E2E400546F3187B603B6813433B6095
:101140008DE72F466568019805423D4687D05D785A
:10115000002D09D11D89022D06D35A70D202636871
:10116000134363603D4610E01A89012A3D460CD1C5
:101170001A89521E1A815A6812782569FF26B543CA
:10118000AA183D46226102225A7062680D48024048
:10119000626064E720695F687E1C5E6038701E894B
:1011A000761E1E816669760700D455E720695F6860
:1011B0007E1C5E6038701E89761E1E814CE7C0461C
:1011C00000540040FFFBFFFFFFF9FFFFFFFDFFFFA3
:1011D0001C00014008000240EFBFFFFF80B5FFF791
:1011E00005FC0348002101704170FF21817280BD20
:1011F000E8000020F0B589B0154C0226A6620C204C
:101200000290089001250795002704A8E0C00396E6
:1012100003A90191204600F011F9A56102980890F8
:10122000079506950596049703952046019900F0C9
:1012300005F92069C00708D1A661A6622069C00728
:1012400003D1781C082F0746F6D309B0F0BDC0467D
:101250000014005033488178002901D0491E817064
:101260007047C04610B5052141432E4841180B79FF
:10127000CA789A4201D1002018E0032A10D0022A2D
:101280000AD0012A11D10120032B044600D00424E6
:10129000002B0BD0204609E0012B06D1032005E0EE
:1012A000581E022801D2022000E004200A7110BD5D
:1012B00080B51C480521FEF722FF80BDB0B5184857
:1012C00000680007C40F01222146514015480378E9
:1012D0008B4210D1457883788D420FD0002B0DD1F1
:1012E0002B4623430CD0002D0ED0002C0CD0032213
:1012F000C27000230BE0022383700170C27807E004
:101300008C238370C27002E00023C3701A464170C0
:10131000012A03D1002B01D10221C170B0BDC0460A
:1013200010040050F8000020002807D07F21890019
:101330004043000A4843000A001D00E00020014924
:101340000860704734200040B0B511A3C918491E89
:1013500009780C580F4B23409468D56825431469CD
:101360002C435569254394692C43D5692543546A18
:101370002C431C430C5008185168C16011688160EF
:101380004168054B0B40116A194341600120B0BD13
:10139000081C30000F80FFFF0000FFFF01460268BD
:1013A000007900280DD0002A12D04879022815D0E3
:1013B00001280FD000281BD11E4843689343436087
:1013C00011E01C480168914301604168914341600C
:1013D0000020704717480368934302E015480368EC
:1013E00013430360001D036813430360002000E003
:1013F0000120897903291AD87944097949008F4451
:1014000001020A0EE5E70C494B6893434B600B68F9
:1014100013430B60704708490B68934302E0064989
:101420000B6813430B604B6813434B607047801C81
:101430007047C0468018024000180240F0B584B0E2
:101440000B68002B45D00025019100900122AA4095
:101450001A4038D00395144654434B6826465E43E1
:10146000032767430568BD4335430560FE43029388
:101470005D1E2346012D05D88D685D438768374082
:101480002F4387600D695D43C76837402F43C760AE
:10149000029D022D039D16D1170A01D0242400E0DD
:1014A00020244D690659002F03D07F437F433B46DC
:1014B00000E05B430F2159438E435D433543009861
:1014C00005510199039D6D1C0B681C46EC40BDD174
:1014D00000E000234A68521E012A05D8C968594312
:1014E00042689A430A434260012004B0F0BD000004
:1014F000F0B587B00D46044600680121029188438B
:10150000206004A800F060F82B4906980190FEF7CF
:101510007AFE06463F20C74360683840304360602B
:101520004B20800070437D21C900FEF76CFE234AEA
:10153000531C03952968994200D30646701C236A00
:101540003B40034323621E4E914205D903984768EE
:10155000002F0AD0192009E049000198FEF753FE38
:10156000304200D10420029B0DE00320414301984A
:10157000FEF749FEF11C0842029B194600D00146C5
:101580000F43D8033843E1690E4A0A400243E2613F
:10159000A068FE218843039A91680143A1602068F6
:1015A00018432060980221688143D0680843206076
:1015B000184607B0F0BDC04640420F00A0860100AB
:1015C000FC0F00000030FFFF10B5044600F08EF95C
:1015D00020600A490A6892093C231340084AD258FD
:1015E0001F231A40D04060600968890A1C220A4003
:1015F000044989581940C840A06010BD0810024035
:10160000304A0008704A0008014908607047C04627
:10161000C000002010B50468A44A904202D01A4BC2
:10162000984204D170239C434B68234300E0234637
:10163000164CA04206DD90420AD09D4CA04207D035
:101640009C4C03E0104CA04202D0114CA04219D196
:1016500003242402A343CC681C4304608B68C36248
:101660000B888362904205D0914A904202D0914A01
:10167000904201D1097C0163426901210A43426120
:10168000084610BD1C46E8E700040040FF2B01405F
:1016900000200040F0B584B00027FF2944DC012978
:1016A00066D0102900D0FDE0016A10239943016241
:1016B000016A3023994313695B085C010C43176886
:1016C00051680901214345688369784EB04205D0CD
:1016D000774EB04202D0774EB04219D10326B602FF
:1016E000B543546903943E469769D4690294BF0098
:1016F000734C3C4037462C43029DED002543C024EB
:10170000A143039C6408E4010C43916889012143CF
:10171000456073242402A3433C021C438461D268C5
:10172000826301620127BDE001242502A9425CD049
:101730002503A94200D0B5E0016AA9430162016A0C
:10174000456816685368039313690293C769574B3A
:10175000984206D0564B984203D0564B984200D040
:1017600088E001239B039D4393699B012B4382E007
:101770000127F943046A0C40046214690C40056AAD
:1017800003239D432543116803915168294346680B
:101790008569464CA04205D0454CA04202D0454C3C
:1017A000A04218D11C02A64301246302009353698E
:1017B00002939369D4690194009CA3433343019C31
:1017C00066001E430C239943029B5B08DB000B431E
:1017D000916889001943466073239D43039B1D4311
:1017E0008561D268426301625CE001273902036AC5
:1017F0008B4303623149491C13691C020C400321CD
:1018000003910902056A8D432543116802915168CD
:101810000C022C434668C5692449884205D02449F6
:10182000884202D0234988421AD1039909038E4382
:10183000516901919169D369009309011E4B0B40D5
:10184000334300994E011E43039989028C431C497E
:10185000091D019B9B020B40234391688C021C4392
:10186000466073218D4302990D43C561D168C16300
:10187000046217E02B46436073231B029F4333022D
:101880003B43C361D26802640322120391430A4AB4
:101890001032029B1B0313400B43039909031943A6
:1018A00001622746384604B0F0BDC046002C014016
:1018B0000048014000440140F0DFFFFFFFFDFFFF53
:1018C000FCF7FFFF81B007490A680092401C01D372
:1018D0000020C043009A0A68D203D2171018FAD128
:1018E00001B0704710E000E0704770471449886805
:1018F0008006400F421E032A14D812487A441279F7
:1019000052009744190401010120C0037047C868C0
:10191000C00712D14868C00A1C2101400B4840583A
:10192000400070474868C00A1C220240074880589F
:1019300009688904490FC840704703487047C0468A
:101940000010024000366E01006CDC02904A000874
:1019500070470000F0B581B0044600880146523956
:101960000C290AD87944097949008F440B1621A122
:1019700033A144A156A168758200002800D097E0E9
:1019800052202080F748016800297BD04B4A002371
:101990001380491E016053202080484D3021284685
:1019A00001F030FB02286DD30020288054202080D5
:1019B000EE4F3A460832414E00253046294600F0A7
:1019C00083F8022877D30020308056202080388981
:1019D000C0003881E54E32460A32384D0121284692
:1019E00000F072F802284DD3002028805820208073
:1019F000708980007081DD4E32460C322F4D0221FD
:101A0000284600F061F802283CD3002028805A20A4
:101A10002080B08907214143B181D44E32460E3235
:101A2000264D0321284600F04FF802282AD3002033
:101A300028805C202080F08905214143F181CB4A38
:101A400010321E4D0421284600F03EF8022819D31A
:101A5000002028805D202080C44A1232174D0921C1
:101A6000284600F031F802280CD3002028805E20A0
:101A70002080BE4D2A46143210480A2100F024F876
:101A8000022801D2002516E01420C043298A193902
:101A9000814201D800206870688A094940180949C4
:101AA000884201D800206870F2480168491C016032
:101AB000002020800325284601B0F0BDFE00002054
:101AC0007CF3FFFF57F9FFFF70B582B015460A4659
:101AD0000446008803260021472804DC002807D09C
:101AE00047280AD026E048281CD049281CD021E0ED
:101AF000144800210180472020801248302100F046
:101B000083F8022801D2002016E0002000909748B8
:101B1000C01C01907820312102232A46FEF78CFE5A
:101B200000280BD0492020809048C178002000294F
:101B300002D001463046218002B070BD012048210C
:101B4000F9E7C04600010020F0B581B00D4604461B
:101B5000008840281DD01E4617463E2806D0002883
:101B600021D11348002101803E202080EF48021D32
:101B70000F48294600F01EF8022812D300200C4915
:101B800008803E40E9490879B8438019087140202F
:101B90002080E64802790648294600F035F80228F8
:101BA00001D2002002E000202080032001B0F0BD1F
:101BB0000201002070B582B0054600880324152874
:101BC00012D014280ED0002815D100200090D7483C
:101BD000C01C0190C9B2782001263346FEF72CFEC6
:101BE00000280AD015202880D048C178002000297C
:101BF00005D1044604E0002001E01420344628808A
:101C0000204602B070BDC04670B582B0054600885F
:101C100003240D2814D00C2810D0002817D1C34855
:101C20000271C21C002300930192C9B2021D7820E8
:101C300001263346FEF72AFE00280AD00D20288010
:101C4000BA48C1780020002905D1044604E00020EC
:101C500001E00C2034462880204602B070BDC0460A
:101C6000F0B583B0054601883D480A18FF27AE3716
:101C7000032400200D2A0AD87A441279520097448E
:101C8000096A141F2C6A6A42456A6A6A5658002912
:101C900061D12F80A0480168002954D0324A002326
:101CA0001380491E0160B81C28802F4E99213046B0
:101CB00001F0A8F9022846D300203080F81C2880C3
:101CC0009A4A3032284E99213046FFF773FF022896
:101CD00039D300203080381D2880944E324631326E
:101CE0002148A221FFF766FF02282CD30020F11C17
:101CF0000090019128367820862102233246FEF793
:101D00009BFD002825D0384608302880874AD078A7
:101D1000002818D00020D062D11C009001912C32F4
:101D2000782088210323FEF787FD00280DD00D378A
:101D30002F807E48C078002805D077480168491C6C
:101D40000160002007E0002406E00C37012438463B
:101D500001E0F81D01242880204603B0F0BDC046F4
:101D600053FEFFFF7C020020040100202001002020
:101D7000F0B581B00D4604460088D1214F00B8422D
:101D800004DC00280BD0B8420AD02EE0FF21A43199
:101D9000884210D069218900884217D025E0278029
:101DA0005D48016800291AD0124A00231380491E99
:101DB0000160781C20800F4E1521304601F022F979
:101DC00002280CD300203080B81C20803F20054022
:101DD000084815212A46FFF717FF022801D20020E4
:101DE00006E04D480168491C016000202080032066
:101DF00001B0F0BD0601002070B504460088FF2147
:101E00000E46D236B04204DC00280AD0B04209D0D7
:101E10002BE0E922520090420FD0D431884217D0F3
:101E200023E026803C480168002918D0124A00238C
:101E30001380491E0160701C20800F4D2021284610
:101E400001F0E0F802280AD300202880B01C20808E
:101E5000094820210122FFF7D7FE022801D20020E5
:101E600070BD2D480168491C0160002020800320BE
:101E700070BDC0467C02002008010020B0B50446B9
:101E8000008824494118032906D8C04679440979B5
:101E900049008F440613202E002837D1FF20DC3064
:101EA00020801D48016800292AD01C4A0023138085
:101EB000491E0160FF20DC30401C2080174D21218D
:101EC000284601F09FF802281AD300202880FF201E
:101ED000DC30801C2080114D2121AA222846FFF7EA
:101EE00093FE02280CD300202880FF20DC30C01C89
:101EF00020800A4821212022FFF786FE022801D2F5
:101F00000020B0BD04480168491C01600020208009
:101F10000320B0BD25FEFFFF7C0200200A01002047
:101F200024200249085C8006C00F70472001002071
:101F3000F0B581B0044600883E49411801273D02B2
:101F4000582900D97CE049007944898849008F44A8
:101F50008100F3039700F303A900F303BD00F3032B
:101F6000CF00F303E300F303F700F3030B01F303E4
:101F70001F01F3033001F3033E01F3034C01F303AC
:101F80005C01F3036901F3037701F3038601F303B3
:101F90009501F303A401F303B401F303C301F303B5
:101FA000D201F303E101F303F001F3030002F303B1
:101FB0001002F3032002F3033002F3034002F303A1
:101FC0005002F3036202F3037302F3038302F30389
:101FD0009302F303A202F303B202F303C202F30378
:101FE000D202F303E202F303F202F3030203F30368
:101FF000F3031203F3035800F303F303D603F303CD
:10200000E20300970C4F38880C4941180A2900D97F
:102010000EE349007944898849008F4411036A031B
:102020001E036A032D033B0349036A0357036A0334
:102030006303C046FAFCFFFF0C0100200BFDFFFF0D
:10204000002800D078E302483D30208002E0C046FE
:10205000C902000002480168002903D162E3C046BA
:102060007C020020044A00231380491E01600348BB
:102070003F30208004E0C0460C010020C90200006F
:10208000034E2021304600F0BDFF022802D249E372
:102090000C0100200020308001484130208001E008
:1020A000C9020000044E202101223046FFF7ACFD9A
:1020B000022803D236E3C0460C0100200020308005
:1020C00001484330208001E0C9020000034E304641
:1020D00001F0B0F8022803D224E3C0460C0100202E
:1020E0000020308001484530208001E0C902000016
:1020F000044E25211D223046FFF786FD022803D21B
:1021000010E3C0460C010020002030800148473019
:10211000208001E0C9020000044E2921012230463E
:10212000FFF772FD022803D2FCE2C0460C0100203A
:102130000020308001484930208001E0C9020000C1
:10214000004E01E00C0100204021A4223046FFF7A0
:102150005BFD022800D2E5E20020308001484B30D0
:10216000208001E0C9020000004E01E00C010020C7
:10217000442178223046FFF747FD022800D2D1E201
:102180000020308001484D30208001E0C90200006D
:10219000004E01E00C01002045213C223046FFF7B3
:1021A00033FD022800D2BDE200203080F8484F30D5
:1021B0002080F84E4A2128223046FFF725FD0228CC
:1021C00000D2AFE200203080F14851302080F14E43
:1021D0004F2150223046FFF717FD022800D2A1E21E
:1021E00000203080EA4853302080EA48A221202293
:1021F00000263346FFF7A8FC022800D293E2002015
:10220000E4490880E24855302080291DE14E3046DF
:1022100000F0F8FE022800D284E200203080DC4882
:1022200057302080DB4E802230462946FFF7ECFCF9
:10223000022800D276E200203080D5485930208034
:10224000291DD44E772220233046FFF77DFC02283B
:1022500000D267E200203080CD485B3020802946E4
:102260000831CC4E8B223046FFF7CEFC022800D23C
:1022700058E200203080C6485D30208029460D316C
:10228000C44E32223046FFF7BFFC022800D249E29A
:1022900000203080BE485F30208029460E31BD4E80
:1022A000CF224F233046FFF74FFC022800D239E2FD
:1022B00000203080B6486130208029460F31B54E6D
:1022C000FA223046FFF7A0FC022800D22AE20020C2
:1022D0003080AF486330208029461031AD4E49220E
:1022E0003046FFF791FC022800D21BE2002030802C
:1022F000A7486530208029461131A64E0622304677
:10230000FFF782FC022800D20CE200203080A048B7
:1023100067302080294612319E4E02223046FFF758
:1023200073FC022800D2FDE100203080984869301B
:10233000208029461331974EF022C0233046FFF704
:1023400003FC022800D2EDE10020308090486B3081
:102350002080294615318F4EC02240233046FFF79A
:10236000F3FB022800D2DDE10020308088486D3088
:10237000208029461631874E5E220E233046FFF715
:10238000E3FB022800D2CDE10020308080486F308E
:102390002080294617317F4EC02230461346FFF772
:1023A000D3FB022800D2BDE1002030807848713094
:1023B000208029461831774E3C2230461346FFF7DD
:1023C000C3FB022800D2ADE100203080704873309A
:1023D0002080294619316F4E0F2209233046FFF71E
:1023E000B3FB022800D29DE10020308068487530A0
:1023F0002080009729461A31664F0026384632461B
:10240000FFF702FC022800D28DE1002038806048EE
:1024100077302080009F29461F315E483F220026EA
:102420003346FFF791FB022800D27CE10020594996
:10243000088057487930208029462031554EA72200
:1024400005233046FFF780FB022800D26AE1002016
:1024500030804F487B302080294622314D4EF0227B
:10246000C0233046FFF770FB022800D25AE100205B
:10247000308047487D30208029462331454EE02278
:102480003046FFF7C1FB022800D24BE1002030802C
:102490003F487F302080294624313E4EC0223046BE
:1024A0001346FFF751FB022800D23BE100203080A9
:1024B00037488130208029462B31364E382230462D
:1024C0001346FFF741FB022800D22BE100203080A9
:1024D0002F488330208029462C312E4E1122304641
:1024E0001346FFF731FB022800D21BE100203080A9
:1024F00027488530208029464D31264E0E2208235C
:102500003046FFF721FB022800D20BE1002030808B
:102510001F488730208029464E311E4E902230467B
:102520001346FFF711FB022800D2FBE000203080A9
:1025300017488930208029465031164E4F220123FA
:102540003046FFF701FB022800D2EBE0002030808C
:102550000F488B302080294651310E4E7F226E234A
:102560003046FFF7F1FA022800D2DBE0002030808D
:1025700007488E3020800097064F38882B49411835
:10258000242900D9DCE0880003A108588746C0460A
:10259000C90200000C01002051270008772900081B
:1025A0006B270008772900088B2700087729000887
:1025B000A927000877290008C527000877290008FF
:1025C000E327000877290008032800087729000876
:1025D0001F280008772900083D28000877290008EF
:1025E0005B28000877290008792800087729000867
:1025F0009728000877290008B528000877290008DF
:10260000D528000877290008F32800087729000852
:1026100011290008772900082F29000877290008C8
:102620004D290008772900086729000837FDFFFFBA
:1026300000285ED1D84800210180D3482C30388052
:1026400029462D31D44E304600F0DCFC022869D3F7
:1026500000203080CC482E30388029462D31CE4E97
:10266000082230461346FFF76FFA02285AD300209B
:102670003080C5483030388029462E31C64E64221D
:102680003046FFF7C1FA02284CD300203080BE4804
:102690003130388029462F31BF4E64223046FFF753
:1026A000B3FA02283ED300203080B7483230388059
:1026B0003035B94E502230462946FFF7A5FA022898
:1026C00030D300203080B04834303880B24D2F21D4
:1026D000284600F097FC022824D300202880AA482E
:1026E00036303880AC482F210122FFF78DFA0228BE
:1026F00018D300203880A44893302080009FA44D38
:102700001521284600F07EFC02280BD300202880EB
:102710009D48953020809E4815213F22FFF774FA8E
:10272000022803D20026304601B0F0BDE8484770C9
:1027300096480168491C0160002020800326F2E7CA
:10274000002800D017E1904838809248002101808D
:10275000294633318F4E304600F054FC0228E1D335
:10276000002030808848801C3880294633318948D1
:10277000B82200263346FFF7E7F90228D3D300201A
:10278000844908808048001D388029463431814EB4
:102790003F2214233046FFF7D7F90228C2D3002086
:1027A00030807948801D388029463531794E39226C
:1027B0003046FFF729FA0228B4D30020308072484F
:1027C0000830388029463631724E9B22032330462A
:1027D000FFF7BAF90228A5D3002030806A480A30F2
:1027E0003880294637316B48412200263346FFF7AF
:1027F000ABF9022897D300206649088062480C3064
:10280000388029463831634EF4223046FFF7FCF910
:10281000022887D3002030805B480E30388029465C
:1028200039315C4EF4223046FFF7EEF9022800D22F
:1028300078E70020308054481030388029463A31FB
:10284000544EF4223046FFF7DFF9022800D269E740
:10285000002030804C481230388029463B314D4EA4
:10286000F4223046FFF7D0F9022800D25AE70020C0
:10287000308045481430388029463C31454E552239
:102880003046FFF7C1F9022800D24BE70020308024
:102890003D481630388029463D313E4E9022304624
:1028A000FFF7B2F9022800D23CE70020308036481A
:1028B0001830388029463E31364EF322F123304617
:1028C000FFF742F9022800D22CE7002030802E4882
:1028D0001A30388029463F312E4EE4223046FFF729
:1028E00093F9022800D21DE70020308026481C30D2
:1028F000388029464031274EE4223046FFF784F9DC
:10290000022800D20EE7002030801F481E30388099
:10291000294641311F4EE4223046FFF775F902285F
:1029200000D2FFE60020308017482030388029464A
:102930004231184ED0223046FFF766F9022800D205
:10294000F0E600203080104822303880114E2E21D1
:10295000304600F057FB022800D2E3E6002030802A
:102960000948243038800B482E210122FFF74CF90A
:10297000022800D2D6E6002038800348903020801C
:10298000009FFFF73EFBC046C90200007C0200200A
:102990000C01002012010020560100204C488289C1
:1029A000D0087D2801D20020704708490878012806
:1029B00004D1D2094A2A04D801207047044B9A4214
:1029C000F1D80122504008707047C0460E01002027
:1029D000282300003E48817F802008407047C04681
:1029E0003B48817F202008407047C0463848817F9F
:1029F000402008407047C046F448817F10200840BE
:102A00007047C046F1494878002809D03220085C58
:102A10003C2807D13320085C502803D1012070479F
:102A200000207047002048707047C046F0B581B064
:102A3000E648018A05224A43503A17B2408A1349B0
:102A40004018FDF7C1FB1249FDF764FB114E3578C4
:102A50000124012D07D1372F15DC1049FDF798FB14
:102A600000280AD10FE00C49FDF7A0FB411E884168
:102A70003B2F00DC0446012C04D101204540357079
:102A80002C4600E00024204601B0F0BDD1F8FFFF45
:102A9000713DDA400F0100200000C8420000B4423E
:102AA000CA48817F022008407047C046C748817FDE
:102AB000012008407047C046C448817F0820084074
:102AC0007047C046C148817F042008407047C04617
:102AD0002001002070B5044600887D218E00B042A0
:102AE00004DC00280BD0B0420AD02EE0FF21F631E2
:102AF000884210D0FB214900884219D025E0268069
:102B0000B048016800290DD0124A00231380491EE5
:102B10000160701C20800F4D2321284600F072FABE
:102B2000022801D2002513E000202880B01C20805C
:102B300008482321012200252B46FFF705F802282B
:102B400006D3F7480168491C016000202080032556
:102B5000284670BD1001002070B5044600881C4E48
:102B6000B04204DC00280AD0B04209D02BE08B210F
:102B7000890088420FD01749884217D023E0268069
:102B8000E7480168002918D0134A00231380491E22
:102B90000160701C2080104D2221284600F032FA7E
:102BA00002280AD300202880B01C20800A48222155
:102BB0000422FFF729F8022801D2002070BDD8486E
:102BC0000168491C016000202080032070BDC046C0
:102BD0002B0200002D0200001401002070B50446F5
:102BE00000881C4EB04204DC00280AD0B04209D054
:102BF0002BE01949884210D089218900884217D0DA
:102C000023E02680C6480168002918D0134A002313
:102C10001380491E0160701C2080104D222128461F
:102C200000F0F0F902280AD300202880B01C208090
:102C30000A4822210822FEF7E7FF022801D20020DD
:102C400070BDB7480168491C016000202080032046
:102C500070BDC046220200002302000016010020C1
:102C600070B5044600888D218E00B04204DC002837
:102C700009D0B04208D02AE0174988420FD017493E
:102C8000884217D023E02680A5480168002918D083
:102C9000134A00231380491E0160701C2080104DD0
:102CA0002221284600F0AEF902280AD3002028800D
:102CB000B01C20800A4822210222FEF7A5FF02282C
:102CC00001D2002070BD96480168491C01600020B7
:102CD0002080032070BDC04635020000360200008F
:102CE00018010020B0B50446008801469F39062926
:102CF00008D8C0467944097949008F4407121D2A33
:102D000037445100002859D19F2020808448016811
:102D100000294DD02C4A00231380491E0160A020B9
:102D20002080294D1321284600F06CF902283FD35A
:102D300000202880A1202080D64A1B32224D13215A
:102D40002846FEF737FF022832D300202880A22031
:102D50002080D04A1E321C4D18212846FEF72AFF3B
:102D6000022825D300202880A3202080C94A1F32B2
:102D7000154D19212846FEF71DFF022818D3002003
:102D80002880A4202080C34A21320F4D1C212846D0
:102D9000FEF710FF02280BD300202880A5202080FA
:102DA000BC4A223208481D21FEF704FF022801D246
:102DB0000020B0BD5A480168491C016000202080F5
:102DC0000320B0BD7C0200201A0100202001002059
:102DD000B0B5044600880146BE390A290AD8C04663
:102DE0007944097949008F440A16212E3B485562DF
:102DF0006F7C8900002800D08EE0BE2020804848EB
:102E00000168002900D181E0464A00231380491E51
:102E10000160BF202080434D0E21284600F0F2F8CB
:102E2000022873D300202880C0202080994A1632BF
:102E30003C4D0E212846FEF7BDFE022866D3002039
:102E40002880C1202080934A1732364D0F21284612
:102E5000FEF7B0FE022859D300202880C22020802F
:102E60008C4A18322F4D10212846FEF7A3FE022867
:102E70004CD300202880C3202080ED4A1932294DF0
:102E800011212846FEF796FE02283FD30020288015
:102E9000C4202080E64A2132224D1C212846FEF71C
:102EA00089FE022832D300202880C5202080E04AF5
:102EB00032321C4D45212846FEF77CFE022825D3E0
:102EC00000202880C6202080D94A3332154D4F215A
:102ED0002846FEF76FFE022818D300202880C7205E
:102EE0002080D34A26320F4D51212846FEF762FE3C
:102EF00002280BD300202880C8202080CC4A27320B
:102F000008485221FEF756FE022801D20020B0BD2B
:102F1000C5480168491C0160002020800320B0BD25
:102F20007C0200201C0100203020C149085C704751
:102F3000BF48407F7047C0462420BD49085C7047A9
:102F40002320BB49085C7047B948C0897047C04618
:102F5000B74840897047C0460548C07DC10601D4C6
:102F600004A070470007800E04A108587047C046AF
:102F7000200100204E4F4E4500000000034D000888
:102F8000D94C0008E54C0008CC4C00080C4D00085A
:102F9000104D0008C44C0008BC4C0008F34C00085D
:102FA000DF4C0008D14C0008EB4C0008FD4C000839
:102FB0000B4D0008F94C0008144D00089C48807F18
:102FC0007047C04680B59A48408A04494018FDF7CA
:102FD000FBF80349FDF79EF880BDC046D1F8FFFF1E
:102FE000713DDA409248008A05214143503908B2C8
:102FF0007047C0468E4880897047C0468C4800891B
:103000007047C046F0B581B0044600882C2805DC26
:103010000D4600280FD0292812D02EE02D2821D0CF
:1030200032282AD11A481C4900252A46FEF7ECFD11
:10303000022822D224E01648002101802920208085
:103040007B4F3A1D124E01213046FEF7B3FD022898
:103050000FD33879290A0ED001280ED100203080F4
:103060002D2020800A4824218122FEF7CDFD022850
:1030700003D2002504E0012805D10020208003258B
:10308000284601B0F0BD0020308032202080C9E702
:103090001E01002020010020FF01000070B5044641
:1030A000008860494118172910D8C0467944097929
:1030B00049008F44111F2D3C4B5A69B3B3B3B3B3CE
:1030C000B3B3B3B3B3B3B3B3B38796A5002800D0FB
:1030D000A4E0FF201230208093480168002900D12D
:1030E00096E0524A00231380491E0160FF201230EF
:1030F000401C20804D4D12212846FFF783FF0228F7
:1031000000D285E000202880FF201230801C208023
:10311000474A1A32454D12212846FEF74BFD022838
:1031200076D300202880FF201230C01C2080404A27
:103130001C323E4D14212846FEF73CFD022867D381
:1031400000202880FF201230001D2080384A1D32C8
:10315000364D15212846FEF72DFD022858D30020B4
:103160002880FF201230401D2080314A1E322F4D12
:1031700018212846FEF71EFD022849D3002028808A
:10318000FF201230801D2080294E32462032274DEC
:103190001A212846FEF70EFD022839D32020315C83
:1031A0008A0914217A4412795200974401030405D4
:1031B000502100E02821315400202880FF201230C7
:1031C000153020801A4A2332184D2A212846FEF74E
:1031D000F1FC02281CD300202880FF20123016307A
:1031E0002080134A2432114D2B212846FEF7E2FCA1
:1031F00002280DD300202880FF20123017302080B5
:103200000B4A253209482C21FEF7D4FC022801D2B2
:10321000002070BD44480168491C016000202080E6
:10322000032070BDEFFEFFFF7C0200205401002050
:1032300020010020B0B5044600883A49411806290B
:1032400008D8C0467944097949008F4408152230CE
:103250003E4C5A00002861D1F320400020803248C3
:103260000168002954D0314A00231380491E0160AF
:10327000F3204000401C20802C4D20212846FFF7E1
:10328000C1FE022844D300202880F3204000801C87
:103290002080264D202101222846FEF7B5FC022879
:1032A00036D300202880F3204000C01C20801F4D12
:1032B000232101222846FEF7A7FC022828D300205C
:1032C0002880F3204000001D2080184D242120225A
:1032D0002846FEF799FC02281AD300202880F32004
:1032E0004000401D2080114D242140222846FEF739
:1032F0008BFC02280CD300202880F3204000801D86
:1033000020800A4824218022FEF77EFC022801D278
:103310000020B0BD04480168491C016000202080E5
:103320000320B0BD1AFEFFFF7C02002058010020E0
:1033300080B5FDF737FCFDF717FCFDF711FBFDF736
:10334000D1FAFDF795FCFDF7F1FBE1204002FDF716
:10335000BBFCFDF74BFB80BD02480168491C0160C6
:103360007047C0468402002007480168074A0A40A7
:10337000074909681143012253030B430360D00638
:10338000044908607047C046041002400000FFFF77
:10339000040FFF1F08ED00E010B581B0354801684B
:1033A000090615D566490A78664B1B789C1A012CCC
:1033B00003D0002B06D1FF2A04D1C168802291439B
:1033C000C16005E0521C0A70D1B25F4A515C416095
:1033D000016889061AD564490A781F2A09D1634A07
:1033E0001278002A0AD000220A704168344AD17744
:1033F0000CE05E4B1B789B1A012B02D1164901226F
:1034000003E043682E4CA354521C0A700168C9079C
:1034100005D0016800910099416800910099016808
:10342000890705D5016800910099416800910099CC
:103430000168090705D5016800910099416800916C
:1034400000990168490705D5016800910099406815
:103450000090009801B010BD880200200548016866
:10346000890604D4C068000601D4002070470120FA
:103470007047C04600380140F0B5024600200029E0
:103480001BD0394B1B78394C26780D4DF7B21F2FC6
:1034900005D1002B12D0002626702F4606E07F1C97
:1034A0009F420BD0761C2670F7B2EF193F78177049
:1034B000C9B2491CCFB28F42E8D0F0BD0120F0BDA7
:1034C0005A010020F0B582B002460020002935D014
:1034D00001901B4805781B4E307800910F461478F8
:1034E000002C16D0FF2806D1002D26D0FF2016492B
:1034F0000C54002005E0431CAB421ED012490C5472
:10350000184630707F1E521C002FE8D1009800280A
:1035100011D00E48026812060DD4094C2278521CB4
:10352000D3B20949C95C0346083B1960227001689F
:1035300080220A430260019800E0012002B0F0BD41
:10354000E0000020A40200207A0100200C38014095
:103550000548017805480278881A01D81F3001E033
:10356000D0430818C0B2704789020020C60000206E
:1035700084B0FFF7DDFEFDF79BFE3220FEF7A2F9D7
:1035800010A000F0ABFD15A000F0A8FD1BA000F0FE
:10359000A5FD1F4D2878002804D0410001A8FCF7A4
:1035A000AEFD0120002100280846FBD0002701AC19
:1035B000184E02CE20468847A41C7F1C28788742DC
:1035C000F7D3EFE70A0A3353315020323137303026
:1035D00020506F7765722042616E6B000A506F77E2
:1035E0006572656420627920535736333036202661
:1035F0002050593332463030324100000A544B5784
:10360000544C20323032362F30382F30380A0000F8
:10361000C8000020CC000020F0B583B0044600882C
:103620004B21C90002912E2812DC014611390D29C7
:1036300035D8C0467944097949008F443741474716
:103640004747616B06808A4B9F4E0F4800686DE0CC
:103650005C2808DC2F2800D1E4E0362800D1F8E00F
:10366000372833D100E101466939062911D84900CC
:103670007944898849008F440900FE011902290014
:10368000290029003300C0468C020020E44800686D
:10369000E7E15D2800D1AEE15E2817D1B6E1002850
:1036A00014D1E0480021018011202080DD4D284602
:1036B000FEF7E4FB022816D3002028801220208089
:1036C000D848FEF735FC02280DD30FE000202080FB
:1036D000032009E0D248006847E0FE48006859E04E
:1036E000FC480068EFE1002003B0F0BDFB48018812
:1036F000FBA000F0F3FCF848002101801720208097
:10370000F54D2846FEF726F90228ECD30020288044
:1037100018202080F048FFF7E5FA0228E3D31920AB
:103720002080F64800681830EA490860F3490968C3
:103730008842D8D2E848002101801A202080E64D36
:103740002846FFF7ABFC0228CDD3002028801B20A1
:103750002080E148FFF73CFB0228C4D31C202080D6
:10376000E64800681830DB490860E4490968884287
:10377000B9D2D948002101801D202080D648FEF70B
:103780006FFA0228AFD31E202080DC480068183072
:10379000D0490860D94909688842A4D2FFF7C8FB1C
:1037A000D74D2870810645D0C10603D5D5A000F0BD
:1037B00095FC2878010703D5D8A000F08FFC287865
:1037C000410703D5DDA000F089FC2878810703D5E7
:1037D000E3A000F083FC2878C10703D0E64800F09E
:1037E0007DFC2878810603D5E44800F077FC287832
:1037F000C006400F11D0FFF79BFB0546FFF7DEFB2D
:103800000646FFF79DFB0746FFF796FB0090DC4856
:10381000294632463B4600F061FCAF48002101805A
:103820002F202080B6480178AB48FEF7A1FA022885
:1038300000D258E7FFF7E6F800281BD1A748029905
:103840000180D04800F04AFCA348002101803620C6
:103850002080A14D2846FEF711FB022800D242E746
:1038600000202880372020809B48FEF761FB02283B
:1038700000D238E7FFF76CFBC34D31280ED828780B
:1038800000280BD1FFF70CF9002803D1FFF70EF940
:10389000002803D0BD480088471C15E0FFF7A0F8BA
:1038A000002807D1FFF708F9002803D1FFF70AF92C
:1038B000002808D0FFF7F4F80427002804D1FFF708
:1038C000F5F8002800D10027B04E3780FFF73CFB09
:1038D000322813D8FFF73CFB32280FD8FFF7ECF85B
:1038E00000280BD1FFF7EEF8002807D1FFF7D8F832
:1038F000002803D1FFF7DAF8002802D077480299B0
:103900000180FFF76DF8002802D0A14800F0E6FB27
:10391000FFF772F8002802D09E4800F0DFFBFEF7A8
:10392000FFFA01469C4800290CD1FFF753F8002804
:1039300002D09A4800F0D2FBFFF758F801469848A9
:10394000002901D000F0CAFBFFF7B6F8002802D02A
:10395000944800F0C3FBFFF7B5F8002802D0924866
:1039600000F0BCFBFFF79CF8002802D08F4800F065
:10397000B5FBFFF79BF8002802D08D4800F0AEFBA6
:10398000FFF7EAFA01468B4800F0A8FBFFF7CCFAF4
:103990000146894800F0A2FBFFF730FB014687484B
:1039A00000F09CFBFFF7D4FA0146854800F096FB37
:1039B000FFF720FB0146834800F090FBFFF7C4FAB5
:1039C0000146814800F08AFBFFF70CFB01467F4867
:1039D00000F084FBFFF7F6FAFCF701FC02467C4896
:1039E0000B4600F07BFB308804281DD33A480021A9
:1039F00001805D202080384D2846FFF7EFF802282F
:103A000000D270E6002028805E2020803248FFF738
:103A100027F9022800D266E65C48002101804BE0CD
:103A20008C020020920200202878002844D02B48E5
:103A300002990180FFF740F800283DD1FFF742F8D6
:103A4000002839D1FFF72CF8002835D1FFF72EF8E0
:103A5000002831D1692020802848006895301D4910
:103A6000086026490968884200D33CE61A480021CC
:103A700001806A202080184D2846FFF733F902287C
:103A800000D230E6FFF718F8002815D1FFF71AF832
:103A9000002811D1FFF704F800280DD1FFF706F830
:103AA000002809D1002028806B2020800A48FFF7D9
:103AB00053F8022800D216E66F2020800F480068D5
:103AC0001830044908600D490968884200D20DE6A3
:103AD00009E6C0468C02002092020020C4000020AB
:103AE0000A0A54696D65206265666F726520736CA1
:103AF0006565703A2564306D730000008402002013
:103B0000900200200A55564C4F206576656E742051
:103B10006F636375727265642E0000000A4368610A
:103B2000726765206661756C74206576656E7420B9
:103B30006F636375727265642E0000000A446973D6
:103B4000636861726765206661756C74206576656F
:103B50006E74206F636375727265642E00000000DE
:103B60000A4B6579206576656E74206F63637572A4
:103B70007265642E00000000984B00081F4B00087F
:103B8000774C0008F64A0008820200208A020020D2
:103B9000B64B0008C14B0008104B0008CF4B000883
:103BA000EB4B0008534B0008814B00083C4B0008CE
:103BB0006A4B0008AE4C0008E74A00084B4C00086E
:103BC0000A4C0008614C0008204C0008364C0008E4
:103BD000CD4A000870B588B0044600887B2807D01D
:103BE000002803D000202080032013E07B202080C9
:103BF000FFF7AEFC00280CD0FFF7AAFC05466E4686
:103C000030462946FFF738FC30462946FFF75AFC74
:103C1000ECE7002008B070BDF0B581B00446008824
:103C20000126BD2806DDE3280DDCBE281BD0DB28DD
:103C300012D014E0002819D09C283DD0B6280ED10F
:103C4000A348006869E0E42806D0FF2106318842D5
:103C500005D19F48006831E19D480068A1E000203F
:103C60002080032030E19A48006876E0FDF7F2FA00
:103C7000FDF724FB974F3878002802D0401E38709B
:103C800002E095480021017000252846FDF7EAFA78
:103C9000032820D0022815D001286AD18E48017847
:103CA000012943D0002920D199490D8001210170BB
:103CB000282038709C2020809548FEF79DF8022827
:103CC00057D200E184480178022914D0012932D169
:103CD000282038704AE08148067081480078002822
:103CE00005D080480178002927D0057041E07E4842
:103CF00001210170A1E03D70794F387800281ED075
:103D00007AA000F0EBF93D702846FDF70DFBB620D8
:103D100020807A4800686E490860784909688842BE
:103D20006A4900D3CFE0042008611FE0022101703E
:103D3000282038701DE0057018E0067019E070A0AA
:103D400000F0CCF904206149086001203870BE20E1
:103D500020806A4800685E490860684909688842AE
:103D600000D3B0E069480078FDF7DEFA5B48002137
:103D700001705B4F3878002836D0FEF70FFE002820
:103D800018D0FFF737F9014662A000F0A7F900202C
:103D90003870FDF7C9FADB202080584800684C498C
:103DA0000860564909688842484900D38BE00420DE
:103DB000086119E03878002816D0FEF737FE002891
:103DC00012D0FFF70FF90546FFF7FCF8FCF707FAEA
:103DD00002460B4659A0294600F080F900203870B1
:103DE000FDF7A2FAE420D7E73C4800783C4909787F
:103DF000002920D000281ED0444908784308012219
:103E00007E2B154600D80025364B1B78002B3746F5
:103E100000D12F46012F08D1C5B20122012D00D8B3
:103E200000221340FF22012B01D180180870C0B27C
:103E3000FDF77AFA1BE0002816D04D480188891C4E
:103E4000018088B24B49884211D34BA000F046F95B
:103E50006420FDF737FDBFF34F8F4C484C4901609C
:103E6000BFF34F8F00BFFDE74148002101806E483E
:103E70000188002901D0491E018046480188491C5B
:103E80000180684D2A68002A02D0002101800EE0DE
:103E900088B265280BD3FCF7F1FF002807D13E4814
:103EA00000F01CF9FDF79AF92868401C28601348B7
:103EB000006807490860FF21063121800F49096821
:103EC000884200D2D2E6002001B0F0BD18040050B4
:103ED00098020020960200209E0200209C020020F2
:103EE000820200209D0200207A0200200A0A574C1C
:103EF0004544204F6666210A00000000840200202D
:103F00000A0A574C4544204F6E210A00C700002082
:103F1000A00200200A0A574C4544204F46463A204A
:103F200062617474657279206C6F772C20564241FF
:103F3000543D25646D560A0A000000000A0A574CD9
:103F40004544204F46463A206F7665722074656D71
:103F500070657261747572652C204E54433D256402
:103F60004320434849503D252E3266430A0A00004B
:103F700094020020DD0500000A0A5265736574741E
:103F8000696E672E2E2E2E2E2E0A0A000CED00E0F2
:103F90000400FA05A6020020B04A0008F0B581B07E
:103FA00004460088FF263C36B04201D0002832D1BA
:103FB000FFF754FA00280BD11B480088002807D1CE
:103FC00018480068002803D018480068000702D489
:103FD00030BF012521E02046FEF77CFD0028FAD005
:103FE00001252846FDF76EFC114801680222914325
:103FF000016010490B6804273B430B6030BF036826
:10400000134303600868B84308602046FFF712F9BD
:104010000028FAD001E0032500262680284601B0BA
:10402000F0BDC0467C020020C400002010040050F7
:1040300010E000E010ED00E070B504460088FF21BC
:104040000D461E352031884203D0A8421CD00028DE
:1040500024D1144E3078002804D013A000F03EF88C
:1040600000203070164E3078002804D015A000F0E3
:1040700035F8002030701748017800290BD0164918
:1040800000220A80027025801348FDF7F7FE0228FF
:1040900001D2002070BDA91C012001E003200021F5
:1040A000218070BD800200200A0A495251206576A5
:1040B000656E74206F636375726564210A00000089
:1040C000810200200A4B4559205072657373656464
:1040D000210A00007A020020A202002083B0B0B5BD
:1040E00091B0044615A80EC015AA009201AD28464D
:1040F000214600F009F840212846FFF7E3F911B006
:10410000B0BC01BC03B0004737B514460846064BA7
:104110006A46214600F0EAF804466946002000F0AD
:1041200081FC20463EBD0000254A00082021020CEB
:1041300001D010211046020A01D0104608390209A8
:1041400001D01046091F820801D01046891E42087E
:1041500001D0881E7047081A704702E008C8121F75
:1041600008C1002AFAD170477047002001E001C160
:10417000121F002AFBD17047F0B51FB486B0099812
:10418000089A030D0021024314D05148514A1818CF
:10419000504305141198012810981AD0281A401C71
:1041A00000264D4F4D49009601910490002812DAE7
:1041B000444211E01198012449A3012801D110982B
:1041C000C1430698119A84600360C26041600BB0DD
:1041D000F0BD4042E4E70446210500203F4A001CB0
:1041E00051410391029012E0E00707D032463B466E
:1041F00001990098FCF74AF90191009032463B463C
:1042000010461946FCF742F906460F466410002C8A
:10421000EAD10498039B0028029A0999089806DAC3
:10422000FCF734F9019B009AFCF730F905E0FCF744
:1042300095F9019B009AFCF791F904460E4600227D
:10424000284BFCF723FA03D80020C043014607E0BF
:104250000022254B20463146FCF766F8FCF7F6F9BC
:10426000102409E0002C0ADB0A220023FBF7EAFFF6
:10427000079B30321A55641E02460A43F2D11122BE
:10428000641C079B121B1C19119B012B03D00123DB
:1042900008430ED10AE0084304D0112010900020FA
:1042A000119077E71098151A6D1E0BE01098824256
:1042B00002DD00236D1C03E0824201DA00236D1E43
:1042C000002BEED0069811998260C16030C07EE765
:1042D00001FCFFFF104D0000000014400000F03F03
:1042E000300000000000F0430000E03FFFB597B051
:1042F0000646002518E2252877D100242746FD49E7
:10430000049400E00443761C32780120203A904067
:104310000842F7D130782A280ED0022230780146A0
:104320003039092916D804990A23594330394018DD
:104330001443761C0490F1E7189802C80491189071
:10434000002904DA0120400304434842049002207B
:104350000443761C30782E2814D10420044370784E
:10436000761C2A2809D11898761C80C8189009E074
:104370000A214F43303FC719761C30780146303947
:104380000929F5D930786C2810D006DC4C281AD0D1
:1043900068280ED06A2817D104E0742813D07A2830
:1043A00012D110E00120400504430CE00121090571
:1043B00001E0032109050C437178814203D10120FA
:1043C00000052418761C761C3078119066280BD0D6
:1043D00013DC58287DD009DC00287BD04528F6D096
:1043E0004628F4D047281AD1A5E118E0632835D033
:1043F000642870D0652812D19DE170286CD008DC4B
:104400006728F1D069287BD06E280DD06F2806D19F
:10441000BAE073282ED0752871D0782859D01A9A0E
:10442000199990476D1C7EE16002400F022809D067
:1044300003280DD00428189801680DD00D60001DC8
:10444000189070E11898EA1701680D604A60F6E765
:10445000189801680D80F2E70D70F0E718986A4629
:1044600001781172001D18900020507202A800906F
:10447000012005E0189802C8189000200091C04360
:1044800061070DD5002101E00199491C0191B94254
:1044900012DA8142F8DB009A515C0029F4D10BE07A
:1044A000002101E00199491C01918142FADB019A46
:1044B0000099895C0029F5D1019904981A9B471A43
:1044C00021463846199A00F097FA01994019451883
:1044D0000BE04FE02CE113E04EE0009800990078EB
:1044E000491C00911A9A199990470198401E019011
:1044F000401CF2D1214638461A9B199A10E137E048
:104500000A200021009001916002410F022907D08A
:10451000189A01CA1892C2179446032908D00AE0D3
:104520001898C01DC108C90005C91891944607E034
:1045300000B2C2179446042902D140B2C1178C467A
:1045400000226146944506DA0A4600214042914124
:104550008C462D2102E0210504D52B216A461173DA
:10456000012103E0E10701D02021F7E7029155E0A6
:104570000A200AE0102008E010200090002104200A
:1045800004430191082703E00820002101910090D5
:104590006002410F022907D0189A01CA189200221E
:1045A0009446032908D008E01898C01DC108C90026
:1045B00005C91891944603E080B2042900D1C0B225
:1045C00000210291210729D51199702906D0009A5E
:1045D0001021019B4A401A4305D00EE040216A4653
:1045E0001173012108E06146014306D030216A467B
:1045F00011731199517302210291009A0821019BB4
:104600004A401A430AD16146014301D1610705D5E9
:1046100030216A46117301217F1E02911199582998
:1046200004D035A10E910DA90D910DE037A1F9E748
:104630006146019B009AFBF705FE0E9B8C469B5C36
:104640000D9A521E0D92137061460143F0D10D98E0
:1046500005A9081A20300190600703D50120000445
:10466000844300E001270198874201DD381A00E009
:104670000020019900904118029809180498401AE6
:104680000490E00306D421461A9B199A049800F07E
:10469000B3F94519002706E003A81A9AC05D1999D5
:1046A00090476D1C7F1C02988742F5DBE0030CD518
:1046B00021461A9B199A049800F09EF9451904E0C6
:1046C0001A9A3020199990476D1C0099481E009045
:1046D0000029F5DC08E00D980D990078491C0D9132
:1046E0001A9A199990476D1C0199481E019000294A
:1046F000F1DC63E1092801003031323334353637DB
:10470000383961626364656600000000303132331D
:1047100034353637383941424344454600000000BD
:1047200000F05AF94519761C3078002800D0E2E5EF
:1047300028461BB0F0BD600700D406271898C01D9E
:10474000C108C90048680A680831C30FDB0718911F
:10475000190001D09CA108E0210501D59BA104E02E
:10476000E10701D09AA100E09AA1430011985B08EB
:10477000109165280CD006DC452809D046281DD0AC
:10478000472841D141E0662818D067283CD13CE059
:104790000021112F01DB112000E0781C0191009015
:1047A00008A911A8FFF7E8FC139905910021119AB7
:1047B00015927F1C12980197009150E00120C007CC
:1047C00003900120019008A9009711A8FFF7D4FCDD
:1047D000139A149905920022119B00921298159336
:1047E000059A0192002901D0104602E0791C401878
:1047F0000190381A01D5019804E04042401E009013
:10480000781C0190C01B029043E0012F00DA0127C1
:104810000021112F01DD112000E0384601910090A8
:1048200008A911A8FFF7A8FC13990591119A002176
:10483000129815920091019721070CD40599B9425D
:1048400001DB019900E00191012904DD159A491E5F
:10485000515C302906D0B84201DA011D05DA012188
:10486000029115E00199491EEDE7002805DC009949
:10487000411800910199091A03E0019A411C9142E3
:1048800000DD01910099401A401C02900120C007F0
:104890000390200706D402990198814202DB002090
:1048A000C043029000206946C87707AF01210398F2
:1048B0000337C907884224D0022011902B20129080
:1048C000039800280CDA404203902D20129007E054
:1048D0000A210398FBF797FC30317F1E0390397053
:1048E0001199481E11900029F2DC03980028EFD19D
:1048F000791E129808703078202108404530BF1E7C
:10490000387006A8C01BC01D0390109800780028BE
:1049100000D00120019941180298C0170918039886
:1049200009180498401A401E0490E00306D421465A
:104930001A9B199A049800F05FF8451910980078AE
:10494000002803D01A9A199990476D1CE00324D5CA
:1049500021461A9B199A049800F04EF845191CE05C
:104960000098002807DB00990598884203DD159818
:10497000405C199901E0199930201A9A90470098E3
:104980006D1C401C00900298401E0290002804D12B
:104990001A9A2E20199990476D1C0199481E019072
:1049A0000029DDDC05E038781A9A7F1C19999047B8
:1049B0006D1C0399481E03900029F4DC21461A9BC4
:1049C000199A0498ACE600002D0000002B000000AE
:1049D0002000000000000000F8B5044600251E4637
:1049E0001746880404D405E039462020B0476D1CE2
:1049F000641EF9D52846F8BDFFB50446002581B0F0
:104A00001E46C80301D5302700E02027880404D5BE
:104A100005E038460399B0476D1C641EF9D5284659
:104A200005B0F0BD0A68531C0B60107070470000A1
:104A30000000000000000000000000000000000076
:104A40000000000000000000000000000000000066
:104A5000010000000200000003000000040000004C
:104A60000600000007000000080000000900000028
:104A70000000000000000000000000000000000036
:104A8000010000000200000003000000040000001C
:104A900000093D0000127A000024F4004086510114
:104AA00000366E0100093D0000093D0000093D008F
:104AB0000A0A493243205761746368446F6720547F
:104AC000726967676572642121210A0A0009094336
:104AD0006869702054656D707261747572653A25ED
:104AE0002E326627430A000A436170616369747954
:104AF0003A25642525000A5265496E697469616C1E
:104B0000697A696E67205357363330362E2E2E0061
:104B10000A46756C6C20436861726765642E000AF2
:104B20004361706163697479206C6561726E696E4E
:104B3000672066696E69736865642E000A506F723B
:104B400074204131205061746820456E61626C654B
:104B5000642E000A506F72742043312050617468D3
:104B600020456E61626C65642E000A506F7274207D
:104B70004132205061746820456E61626C65642E1C
:104B8000000A506F727420433220506174682045CF
:104B90006E61626C65642E000A5363656E65206306
:104BA00068616E6765206576656E74206F636375F6
:104BB000727265642E000A4368617267696E672EBF
:104BC000000A4469736368617267696E672E000A40
:104BD0004368617267696E672073746F7070656493
:104BE000206279206661756C742E000A44697363D3
:104BF00068617267696E672073746F707065642096
:104C00006279206661756C742E0009506F7274426F
:104C100075732043757272656E743A25646D410038
:104C200009426174746572792043757272656E749D
:104C30003A25646D41000A4E54432054656D7072EC
:104C400061747572653A25642743000A506F727467
:104C500042757320566F6C746167653A25646D56B2
:104C6000000A4261747465727920566F6C746167D2
:104C7000653A25646D56000A4556454E543D3078D8
:104C800025303258205359533D3078253032582042
:104C90004641554C545F443D3078253032582046CB
:104CA00041554C545F433D307825303258000A500E
:104CB000726F746F636F6C3A2025730050442850F4
:104CC0005053290050442846495829005143332B5A
:104CD00000564F4F43312E30005143322E3000509A
:104CE00045322E30005143332E3000564F4F43345F
:104CF0002E30005045312E31004146430053564F6F
:104D00004F4300554E4B4E4F574E005346435000B5
:104D1000534350005546435300000000404D0008E7
:104D200000000020E80000005A410008284E00085A
:104D3000E8000020C00500006A41000800000000F3
:104D40000000000000000000000000000000000063
:104D50000000000000000000000000000000000053
:104D60000000000000000000000000000000000043
:104D70000000000000000000000000000000000033
:104D80000000000000000000000000000000000023
:104D90000000000000000000000000000000000013
:104DA0000000000000000000000000000000000003
:104DB00000000000000000000000000000000000F3
:104DC00000000000000000000000000000000000E3
:104DD00000000000000000000000000000000000D3
:104DE00000000000000000000000000000000000C3
:104DF00000000000000000000000000000000000B3
:104E000000127A0058021F7F05000000D53B000801
:104E1000193C000839400008193600089D3F000879
:084E2000FF000000000000008B
:04000005080000C12E
:00000001FF
