:020000040800F2
:10000000A8060020D5000008A11800083D0E000831
:1000100000000000000000000000000000000000E0
:1000200000000000000000000000000009190008A6
:100030000000000000000000A3180008F1300008D4
:10004000E7000008E7000008E7000008E7000008F4
:10005000E7000008E7000008E90D0008090E0008A5
:1000600000000000D10D0008E700000800000000BB
:10007000E7000008E7000008E700000800000000B3
:10008000E7000008E700000800000000E7000008A3
:1000900000000000E7000008E7000008590E000813
:1000A00000000000E7000008E70000083131000808
:1000B000E700000800000000E70000080000000062
:1000C0000348854600F0DAFA00480047D5070008E3
:1000D000A80600200448804704480047FEE7FEE7E2
:1000E000FEE7FEE7FEE7FEE701310008C100000879
:1000F000D2B201E00270401C491EFBD270470022C0
:10010000F6E710B513460A4604461946FFF7F0FF16
:10011000204610BD70B502464A40D50F40004A0047
:10012000ED0740085208002814D0002A12D0C40D50
:10013000D30D41020120C0055202490A520AE41AB5
:10014000091812187D34914201D3641C00E0490063
:10015000002C01DA002070BD0023914201D3891ADE
:100160000343400849000028F7D100290AD09142F2
:1001700002D10121C90705E0914201D2012101E02C
:100180000121C943E005C018401900F06FF870BDA7
:10019000C217C10F504010B54018CA07962300215E
:1001A00000F06CF810BDC20FD207400040080BD021
:1001B000C10D0723DB01C91840020905400A11439C
:1001C000C20840071143704700200146704770B5D0
:1001D0000446002903D000202022012310E000283B
:1001E00001D00020C043C046C0460DE02546D540A2
:1001F0008D4205D30D469540641B1D469540401920
:100200001546521E002DF1DC214670BDF0B51FB41D
:100210000646002082B005464024019100901BE074
:10022000019922460F46304600F050FA049A059B89
:10023000801A994110D310461946224600F036FA2A
:10024000361A8F410197224601200021009F00F0BD
:100250002DFA38184D4100902046641E0028DFDC3E
:10026000019B00982946324607B0F0BD002904DA08
:10027000401C490001D140084000704770B4002480
:10028000050C05D11024000402D1002921D011242D
:10029000050E01D100020834050F01D10001241D13
:1002A000850F01D18000A41C002801DB4000641CE4
:1002B000002908D020252E1B0D46F540A14000D076
:1002C00001212943084301061B1B000ADB1D02D53F
:1002D000002070BC7047DB05181880180029F8DA78
:1002E000401C4900F5D170BC400840007047000038
:1002F000F0B507460846584087B0C00F0490480044
:100300000E46590040084908BC1A884105D23846B3
:1003100031461E4617460B46024658004008104319
:100320004CD0300D039040055900400D490D05900B
:10033000401A0290402872DA18030121000B0905C7
:100340000843019004980092002805D00199524278
:100350000020884100920190029840210A1A0199D8
:10036000009800F0A3F905460C466B4607CB00F059
:10037000BEF9C0197141039A0E0D0023D7175640DC
:100380001A467A40164344D0049A002A2DD0029A85
:10039000012A039A15DC1205C01A9141012636057F
:1003A000001C7141D20F059ED20700930192029664
:1003B0002A46234600F0BBF907B0F0BD3846314667
:1003C000FAE71605224A0F46B218C01AB7410121B2
:1003D0000905001C4F4100187F411146181879414A
:1003E000E20F10436D19644113E0E2076D081543F5
:1003F0006408C2071443039A01261205C01A9141EA
:100400003605001C7141CE07400830434908C0182A
:1004100051412A46234600F07DF9CDE7FFE70498D5
:1004200001224000C117121A00238B410498314663
:10043000C417381AA141EEE730B40124E407634041
:1004400030BC55E730B40124E407614030BC4FE7CD
:100450000000E0FFF0B51FB488B00B9909980024A4
:1004600048400999C00F490049080991C0070B99F4
:100470000090490049080B9109990898A64608433D
:100480001CD00B990A98084318D009980124400001
:10049000420D4800410D099824050003000B20433C
:1004A00009900B980003000B20430B9050181C4937
:1004B0004018002201901446104605E00020014635
:1004C0000DB0F0BD032801DA034600E003239C468B
:1004D000C11A0AAE0AE05F0008ADED5B4F00F75BA2
:1004E0007D430027AA187C41491C5B1E6145F2DD53
:1004F000410004AB5A522104120C0A43240C401C44
:100500000828DFDB01980290009970460191009065
:10051000059B049A0799069800F009F9D0E70000B6
:100520000DFCFFFFF0B50C465C4085B0E40FE4071E
:1005300003944C000026640859009446490802467A
:100540000296224321D062460A431ED06200570D14
:100550004A000E032303550D012402462C492405AD
:10056000781B1B0B360B4018234326436146009033
:100570001C46501AB44103D30098401C009002E07E
:10058000921800985B41002803DA0020014605B06C
:10059000F0BD0020012109050746864611E06446AA
:1005A0001D46141BB54106D36546521BB341744624
:1005B00007430C43A646CD07400849082843921834
:1005C0005B4105460D43EAD11046184313D06046FF
:1005D000194650407140084306D06046101AB34196
:1005E00006D20122002306E000220123DB0702E0FD
:1005F0000122D2435310009874460105381C614112
:10060000029C039D0019694100F084F8BFE70000D7
:10061000FD0300004A0009030123090B1B051943D0
:100620000A4B10B5520D9A4202DA0020014610BD65
:10063000064B34339A4203DC9A1A00F047F810BD97
:10064000034BD21800F032F810BD0000FF03000089
:10065000CDFBFFFF10B5002904DB0124E407404275
:100660008C412146002B04DB1C460123DB07524250
:10067000A341994200D1904210BD00001CB5094829
:1006800000900948019005460126009C05E0E368BA
:1006900007CC33430C3C98471034AC42F7D3FFF7F8
:1006A00013FD00008C480008AC48000810B5202A53
:1006B00004DB0146203A9140002010BD91402023E8
:1006C0009C1A0346E3401943904010BD10B5202A00
:1006D00004DB0846203AD040002110BD0B46D34031
:1006E000D0402024A21A91400843194610BD10B5ED
:1006F000202A06DBCB170846203A1041C1170B43CE
:1007000006E00B461341D0402024A21A9140084332
:10071000194610BD10B5002B08DA0024401C6141B9
:1007200092185B411A4301D14008400010BDF0B55A
:100730001FB482B005460C0003D0084603F030FB1E
:1007400002E003F02DFB20300246009021462846AF
:10075000FFF7ACFF049B059A04460F46184311436C
:10076000084314D0184610431BD0009840210A1AA1
:1007700018460599FFF7AAFF05460E46009A059907
:100780000498FFF793FF084305D0012004E02046BA
:10079000394607B0F0BD0020C11705430E432C4376
:1007A000374300990E986305401A7905E40A002240
:1007B0000C43FD0A0A3002D500200146E9E7010595
:1007C000101969410C9C0D9D00196941FFF7A2FFAA
:1007D000DFE7000080B5002007490122D306C35897
:1007E0000B50001DC028F8D150070449086002F0E2
:1007F0008BFD002080BDC0460000002008ED00E019
:10080000B0B5B34C04252570FE250540A570E170F8
:10081000626023810598E060E06800210170032098
:100820004002A7494A6802434A600120C2020B689D
:1008300093430B6000020A6802430A60A07A04999D
:10084000814201D1FF20A0720120B0BD70B5A04C43
:1008500001252570FE260640A670E17062602381A6
:100860000598E060E068002101700320400294498F
:100870004A6802434A60E8020A6882430A60280222
:100880000A6802430A60A07A0499814201D1FF20DC
:10089000A072012070BDC046F0B583B001AC022744
:1008A000A7710126A680402000900190204600F00C
:1008B00051FD3004144D696881436960134A106822
:1008C00013490840B1074018106080498020086033
:1008D000A771A68008200190204600F03BFD032070
:1008E0000006296881430A480818401C2860FF2038
:1008F0000004064A11688143B0050818106000988A
:100900007249086003B0F0BD6018024004E400E0E2
:10091000FFFFFF00F0B587B06C4618212046FFF7B7
:10092000EEFB1E480168232211430160006810405D
:10093000069000260596022504950396029503204D
:1009400001901020009006985B48214600F052FD6F
:100950000596012702A8E0C00196402000900520DE
:100960000007214600F046FD059602A8E0C001966A
:1009700008200090684D2846214600F03BFD0420E9
:10098000A862019700900596049603960296284661
:10099000214600F02FFD07B0F0BDC04634100240E4
:1009A000F0B599B000F002FC0C20189001241794C7
:1009B0001694022004901590149013903E4D13AE9F
:1009C0002846314600F016FD13942846314600F0C3
:1009D00011FD6005394E31690143316131690140D2
:1009E0000591059931680143316031688143316077
:1009F000E003334D29680143296029688143296058
:100A00000020129007460390AA201190A003109096
:100A10002C480F900FA9284600F046FDFF2108063C
:100A20000B460191284AD1688143D160E005E7492E
:100A300008602002696801436960A0026968814317
:100A4000696061020291686888436860FA480770CB
:100A50008372F0682043F060F068204005900598AC
:100A600005AF24213846FFF74AFB20030E90802073
:100A70000A9010200790174E304621463A4600F063
:100A80003FFC1548016820220A4302601035356199
:100A9000B06804990843B060019800020A4A1168DE
:100AA00081431160C948029901600C4804600398B1
:100AB000E149487019B0F0BD001400502C100240FC
:100AC00000540040801A060008E400E000E100E065
:100AD000E8000020000002401C00014078020020D5
:100AE00010B58EB000240B94022008900A900D944B
:100AF00009900C90084808A900F07CFC0694049426
:100B0000012101916020009003945B486A4600F047
:100B10009DFD0EB010BDC0460004005010B50C483D
:100B2000016810229143016001214A02094B1C68AF
:100B300014431C6089031A680A431A600168022280
:100B400091430160016804229143016010BDC046D9
:100B500010ED00E00070004070B582B0294C216CAF
:100B6000012001432164216C01400091009901079B
:100B7000E26B0A43E263E26B0A40019201990102CF
:100B800022680A43226020490968204A0A40204D11
:100B9000691C63680B40D118C20389186160216821
:100BA0004905FCD50F210902A2688A43A260A26808
:100BB00007218A43A260A2689206520FFBD1090363
:100BC000A2688A43A2601349134A4A6000228A60DD
:100BD00005220A600A68022313430B60C6430F48CC
:100BE0000168314001600E4800F0EAFCE06D3040E1
:100BF000E065206828402060206E3040206602B00A
:100C000070BDC04600100240100FFF1FFF1F000004
:100C1000FFFFFEFF10E000E07FA90300002002407C
:100C200000366E01F0B587B001AC14212046FFF705
:100C300066FA0126F7030E48016839430160002176
:100C4000217421800068384006900491029109487F
:100C500003900698084D2846214600F0B7FC686CC2
:100C60003843686428683043286007B0F0BDC04648
:100C700040100240FF03000000200040F0B587B0A4
:100C80000127B9034C4BDA680A43DA60DA680A4094
:100C900004924A49096819224A4381001046FFF725
:100CA00096FA054664263146FFF791FA0446444811
:100CB00060434019000132303146FFF788FA0F22B5
:100CC000029201461140F02303402001181880B21F
:100CD000411804983B4A916038030390D1688143DE
:100CE000D160790313698B43136103235C02D568D8
:100CF000A543D5601B0254699C435461D3680C24FE
:100D00001C43D460D3680B43D36040200190C5439B
:100D1000156029480168394301600168394005912F
:100D200005990168394301600168394006910699C7
:100D300005210E0731682020014304460090102051
:100D400081433160B16830230B43B360F1680143E4
:100D5000A143F16002990802336A83433C021819E7
:100D6000306230688023184328403060B068C02566
:100D70000543B560F068019D28439843F06008037F
:100D8000336A8343039818183062D0682043D060D8
:100D9000506938435061D06800990843D060FF2003
:100DA000000609490A688243B80710180860F80667
:100DB0000649086007B0F0BD34100240C0000020B2
:100DC0009CFFFF0F0038014018E400E000E100E064
:100DD000044841680122914341600260F2480221C7
:100DE00041707047040002400E480168090708D5A9
:100DF000082101600348012101704B20C0000B490C
:100E0000088070477D02002006480168490608D521
:100E1000402101600448012101704B20C0000349BA
:100E2000088070470C1802407C020020C40000209B
:100E3000DD4800787047C046E8000020BFF34F8FC0
:100E4000034804490160BFF34F8F00BFFDE7C04670
:100E50000CED00E00400FA05F0B583B0D14C6069F8
:100E6000C00712D0D0480178012903D0072903D048
:100E700004290AD1807802E08178012008432169A1
:100E8000FF229143C0B2081820610120450281026F
:100E900001916269920732D562690292029AA2694F
:100EA0000292029AC04A1378072B07D0042B03D072
:100EB000012B24D102231BE0052319E01389002B09
:100EC00009D01389012B15D12268A9490A40226053
:100ED00022682A4312E06368A64F3B4063602368A0
:100EE0002B43236063683B406360D3681870002322
:100EF000137004E01289226801990A4322600202F9
:100F000063695B0723D463695B067FD5A64B1E89A3
:100F1000002E7BD01E78072E78D11F89032F71D029
:100F2000022F69D0012F00D00DE121695F687E1C7E
:100F30005E6039701E89761E1E8103267602676800
:100F4000B7436760DE68307000261E705EE0964B27
:100F50001F78032F30D0072F0FD0062FD3D10327B0
:100F60007F026668BE43666066683E436660072629
:100F70001E70236813432360C5E71E89022E2BD100
:100F800026682E43266021695F687E1C5E6039708A
:100F90001E89761E1E8121695F687E1C5E60397025
:100FA0001E89761E1E81032676026768B743676036
:100FB000DE68307000260DE05E78022EA3D16668F0
:100FC0006D490E40666026682E432660DE683070EC
:100FD00000265E701E7096E71E89032E93D1266848
:100FE00063490E40266021695F687E1C5E6039702F
:100FF0001E89761E1E8186E723685D490B402360AB
:10100000636801E063685A490B40636063691B06CB
:1010100037D4636901990B4213D06169544B19406D
:1010200061616168194061606168534B194061609A
:101030002168294321605C4900230B70C9680223A1
:101040000B70616911421AD0616991436161C003FB
:10105000216801432160FFF7A3FC53480021017080
:101060006268434B1A4062606268434B1A40626098
:1010700022682A4322600170C0680421017003B015
:10108000F0BD494B1F787E1E022E0ED3032F33D0A6
:10109000052FBED12946DD782669FF27BE43751985
:1010A000256106251D700D46B3E7DE7827692946C0
:1010B000FF25AF43BD19256103251D701D89022D34
:1010C0000D46A6D32D4D2E68092737431626B74364
:1010D0002F602B4F3D682B4E2E4010363E605D68D2
:1010E000FD601B897D689A4E2E400D46F3187B608B
:1010F0003B6803433B608CE72E46656801990D42CF
:10110000354686D05D78002D08D11D89022D05D386
:101110005870C30265681D4365600EE01D89012D8E
:101120000BD11D896D1E1D815D682D782169FF27FA
:10113000B9434D19256102255D7063680C490B4068
:101140006360354665E721695F687E1C5E603970C3
:101150001E89761E1E816669760700D456E72169CE
:101160005F687E1C5E6039701E89761E1E814DE7A9
:10117000FFFBFFFFFFF9FFFFFFFDFFFF1C0001402A
:1011800008000240EFBFFFFF80B50120C003054902
:101190000A6802430A60FFF703FC0348002101705C
:1011A00080BDC04600540040E8000020F0B589B082
:1011B000154C0226A6620C20029008900125079586
:1011C000002704A8E0C0039603A90191204600F07F
:1011D00011F9A56102980890079506950596049760
:1011E00003952046019900F005F92069C00708D150
:1011F000A661A6622069C00703D0781C082F0746A5
:10120000F6D309B0F0BDC0460014005033488178D1
:10121000002901D0491E81707047C04610B50521D4
:1012200041432E4841180B79CA789A4201D10020D7
:1012300018E0032A10D0022A0AD0012A11D1012075
:10124000032B044600D00424002B0BD0204609E0D9
:10125000012B06D1032005E0581E022801D20220EE
:1012600000E004200A7110BD80B51C480521FEF77E
:1012700046FF80BDB0B5184800680007C40F0122C2
:1012800021465140154803788B4210D14578837828
:101290008D420FD0002B0DD12B4623430CD0002DB7
:1012A0000ED0002C0CD00322C27000230BE00223CE
:1012B00083700170C27807E08C238370C27002E0F3
:1012C0000023C3701A464170012A03D1002B01D1BB
:1012D0000221C170B0BDC04610040050F8000020CB
:1012E000002807D07F2189004043000A4843000AB4
:1012F000001D00E0002001490860704734200040D4
:10130000B0B511A3C918491E09780C580F4B2340DA
:101310009468D568254314692C435569254394691D
:101320002C43D5692543546A2C431C430C500818A0
:101330005168C160116881604168054B0B40116ABA
:10134000194341600120B0BD081C30000F80FFFF31
:101350000000FFFF01460268007900280DD0002A36
:1013600012D04879022815D001280FD000281BD1AF
:101370001E4843689343436011E01C480168914351
:10138000016041689143416000207047174803683D
:10139000934302E01548036813430360001D03688C
:1013A00013430360002000E00120897903291AD843
:1013B0007944097949008F4401020A0EE5E70C4996
:1013C0004B6893434B600B6813430B6070470849AD
:1013D0000B68934302E006490B6813430B604B68AC
:1013E00013434B607047801C7047C0468018024012
:1013F00000180240F0B584B00B68002B45D00025E2
:10140000019100900122AA401A4038D00395144659
:1014100054434B6826465E43032767430568BD4334
:1014200035430560FE4302935D1E2346012D05D81A
:101430008D685D43876837402F4387600D695D4342
:10144000C76837402F43C760029D022D039D16D108
:10145000170A01D0242400E020244D690659002FEA
:1014600003D07F437F433B4600E05B430F2159435A
:101470008E435D433543009805510199039D6D1CD2
:101480000B681C46EC40BDD100E000234A68521EA8
:10149000012A05D8C968594342689A430A43426001
:1014A000012004B0F0BD0000F0B587B00D46044641
:1014B0000068012102918843206004A800F060F8D0
:1014C0002B4906980190FEF782FE06463F20C7434F
:1014D00060683840304360604B20800070437D215D
:1014E000C900FEF774FE234A531C039529689942EC
:1014F00000D30646701C236A3B40034323621E4E02
:10150000914205D903984768002F0AD0192009E0B5
:1015100049000198FEF75BFE304200D10420029B97
:101520000DE0032041430198FEF751FEF11C0842F3
:10153000029B194600D001460F43D8033843E169A6
:101540000E4A0A400243E261A068FE218843039AE2
:1015500091680143A16020681843206098022168C7
:101560008143D06808432060184607B0F0BDC046EC
:1015700040420F00A0860100FC0F00000030FFFF7A
:1015800010B5044600F08EF920600A490A689209F5
:101590003C231340084AD2581F231A40D0406060B1
:1015A0000968890A1C220A40044989581940C84020
:1015B000A06010BD08100240A4460008E4460008E0
:1015C000014908607047C046C000002010B504689B
:1015D000A44A904202D01A4B984204D170239C43F3
:1015E0004B68234300E02346164CA04206DD9042A0
:1015F0000AD09D4CA04207D09C4C03E0104CA04266
:1016000002D0114CA04219D103242402A343CC6878
:101610001C4304608B68C3620B888362904205D0D0
:10162000914A904202D0914A904201D1097C0163D3
:10163000426901210A434261084610BD1C46E8E7A1
:1016400000040040FF2B014000200040F0B584B0B2
:101650000027FF2944DC012966D0102900D0FDE0D5
:10166000016A102399430162016A30239943136987
:101670005B085C010C431768516809012143456808
:101680008369784EB04205D0774EB04202D0774E93
:10169000B04219D10326B602B543546903943E46BD
:1016A0009769D4690294BF00734C3C4037462C4381
:1016B000029DED002543C024A143039C6408E4017E
:1016C0000C43916889012143456073242402A3439C
:1016D0003C021C438461D268826301620127BDE041
:1016E00001242502A9425CD02503A94200D0B5E01F
:1016F000016AA9430162016A456816685368039349
:1017000013690293C769574B984206D0564B9842CB
:1017100003D0564B984200D088E001239B039D43A1
:1017200093699B012B4382E00127F943046A0C4033
:10173000046214690C40056A03239D432543116824
:1017400003915168294346688569464CA04205D0FB
:10175000454CA04202D0454CA04218D11C02A643E1
:10176000012463020093536902939369D46901943D
:10177000009CA3433343019C66001E430C23994302
:10178000029B5B08DB000B439168890019434660AC
:1017900073239D43039B1D438561D26842630162AD
:1017A0005CE001273902036A8B4303623149491C1B
:1017B00013691C020C40032103910902056A8D4341
:1017C00025431168029151680C022C434668C56993
:1017D0002449884205D02449884202D023498842BE
:1017E0001AD1039909038E43516901919169D36913
:1017F000009309011E4B0B40334300994E011E43D9
:10180000039989028C431C49091D019B9B020B40D3
:10181000234391688C021C43466073218D430299D7
:101820000D43C561D168C163046217E02B46436074
:1018300073231B029F4333023B43C361D26802649C
:101840000322120391430A4A1032029B1B031340E6
:101850000B4303990903194301622746384604B034
:10186000F0BDC046002C014000480140004401404A
:10187000F0DFFFFFFFFDFFFFFCF7FFFF81B007492F
:101880000A680092401C01D30020C043009A0A68F5
:10189000D203D2171018FAD101B0704710E000E05F
:1018A00070477047144988688006400F421E032A1B
:1018B00014D812487A44127952009744190401014D
:1018C0000120C0037047C868C00712D14868C00A29
:1018D0001C2101400B484058400070474868C00A2E
:1018E0001C2202400748805809688904490FC840F3
:1018F000704703487047C0460010024000366E0132
:10190000006CDC020447000870470000F0B581B0AD
:101910000446008801465A390B2909D879440979C7
:1019200049008F440D18942A943B944D945F6C7930
:10193000002800D08BE04948002101805A202080F7
:10194000464D3021284601F03FFA02286DD3002091
:1019500028805B202080C14F3A4608323F4E002548
:101960003046294600F080F8022873D300203080EA
:101970005D2020803889C0003881B84E32460A3256
:10198000364D0121284600F06FF802284DD3002083
:1019900028805F202080708980007081F04E324660
:1019A0000C322E4D0221284600F05EF802283CD36E
:1019B0000020288061202080B08907214143B18127
:1019C000E74E32460E32254D0321284600F04CF8F2
:1019D00002282AD30020288063202080F089052156
:1019E0004143F181DE4A10321C4D0421284600F0AB
:1019F0003BF8022819D30020288064202080D84A90
:101A00001232164D0921284600F02EF802280CD378
:101A10000020288065202080D14D2A4614320F48AE
:101A20000A2100F021F8022801D2002512E014203A
:101A3000C043298A1939814201D800206870688A18
:101A4000074940180749884201D8002068700020E3
:101A500020800325284601B0F0BDC046FE000020CE
:101A60007CF3FFFF57F9FFFFF0B583B016460A4637
:101A70000546008801464D390324032906D8C0468F
:101A80007944097949008F4405102325002829D17C
:101A90004D202880B3480168002926D0164B002726
:101AA0001F80491E01604E2028801348302100F01D
:101AB00097F8022819D300200090A948C01C019073
:101AC0007820312102233246FEF79AFE002810D0FA
:101AD00050202880A248C078002806D0A14801687C
:101AE000491C01600020288000E00024204603B04B
:101AF000F0BD01244F20F6E700010020F0B581B0D1
:101B00000D460446008846281DD01E461746442828
:101B100006D0002821D113480021018044202080D4
:101B20008F48021D0F48294600F01EF8022812D3E4
:101B300000200C4908803E4089490879B843801943
:101B4000087146202080864802790648294600F020
:101B500047F8022801D2002002E000202080032064
:101B600001B0F0BD0201002070B582B004460388C8
:101B700003260020162B04DC002B07D0162B07D0E1
:101B800024E0172B17D0182B17D01FE01620208029
:101B900074480368002B1CD05B1E03607048C01C97
:101BA000002300930190C9B2782001252B46FEF74F
:101BB00027FE002811D0182020806948C07800280E
:101BC00007D068480168491C016000203546208024
:101BD00000E00025284602B070BD1720F7E7C04698
:101BE00070B582B004460388032600200C2B04DC69
:101BF000002B07D00B2B07D026E00D2B19D00E2B76
:101C000019D021E00B20208056480368002B1ED0FD
:101C1000534D2A715A1E0260E81C00220092019066
:101C2000C9B22A1D782001252B46FEF70FFE002899
:101C300011D00E2020804A48C078002807D049489B
:101C40000168491C016000203546208000E0002525
:101C5000284602B070BD0D20F7E7C0461C010020E9
:101C6000F0B583B0054601883B480A18B520470007
:101C7000032400200B2A09D87A4412795200974491
:101C80000B1623662D6640426666525400295ED1CB
:101C90003248002101802F80304E9921304601F0DA
:101CA00093F802284BD300203080781C28802C4ADF
:101CB00030322A4E99213046FFF756FF02283ED394
:101CC00000203080B81C2880254A31322348A221C8
:101CD000FFF74AFF022832D3381D288021480168C7
:101CE00000292CD0491E01601D4AD01C0021009102
:101CF00001902832782086210223FEF781FD0028FA
:101D000023D0F81D2880164AD078002817D000204C
:101D1000D11C009001912C32782088210323FEF7FA
:101D20006FFD00280DD00B372F800D48C07800289C
:101D300005D00C480168491C0160002007E0002420
:101D400006E00A370124384601E0B81D0124288046
:101D5000204603B0F0BDC04696FEFFFF0401002000
:101D60001C0100207802002070B504460088FF2185
:101D70008E31884214D063218E00B04205D00028F5
:101D800017D10E480021018026800C4D20212846C5
:101D900001F01AF802280AD300202880701C208045
:101DA000064820210122FFF71BFF022801D2002054
:101DB00070BD00202080032070BDC04606010020B9
:101DC00070B50446008865218E00B04204DC00280E
:101DD0000BD0B0420DD02CE0FF219631884213D0B9
:101DE000CB21490088421BD023E014480021018008
:101DF0002680124D2121284600F0E6FF022816D346
:101E000000202880701C20800C4D2121AA22284609
:101E1000FFF7E6FE02280AD300202880B01C2080AD
:101E2000064821212022FFF7DBFE022801D20020F4
:101E300070BD00202080032070BDC0460801002036
:101E4000F0B581B0044600883D49411801273D02A4
:101E5000562900D97AE049007944898849008F449D
:101E60008300FC039300FC03A500FC03B500FC0306
:101E7000C700FC03D900FC03EB00FC03FD00FC03DE
:101E80000F01FC032101FC033301FC034401FC03AB
:101E90005201FC036101FC037101FC038101FC039D
:101EA0009101FC03A201FC03B201FC03C201FC038B
:101EB000D201FC03E201FC03F301FC030402FC0376
:101EC0001502FC032602FC033702FC034802FC0354
:101ED0005B02FC036F02FC038002FC039102FC0323
:101EE000A102FC03B202FC03C302FC03D402FC0304
:101EF000E502FC03F602FC030703FC03FC031803E2
:101F0000FC035600FC03FC03E203FC03EF03009711
:101F10000C4F38880C4941180A2900D914E34900AC
:101F20007944898849008F4418037703260377038F
:101F30003603450354037703630377037003C046F6
:101F40006EFDFFFF0A01002080FDFFFF002800D08A
:101F500083E3044800210180952080003E302080EA
:101F600002E0C0460A010020034E2021304600F066
:101F70002BFF022802D26AE30A01002000203080F1
:101F80009520800040302080044E202101223046E0
:101F9000FFF726FE022803D259E3C0460A010020BB
:101FA000002030809520800042302080034E304653
:101FB00001F01CF8022803D249E3C0460A010020C0
:101FC000002030809520800044302080044E252160
:101FD0001D223046FFF704FE022803D237E3C04635
:101FE0000A010020002030809520800046302080AB
:101FF000044E292101223046FFF7F2FD022803D2C8
:1020000025E3C0460A010020002030809520800092
:1020100048302080044E4021A4223046FFF7E0FDE6
:10202000022803D213E3C0460A01002000203080BA
:10203000952080004A302080044E4421782230468A
:10204000FFF7CEFD022803D201E3C0460A010020BB
:1020500000203080952080004C302080004E01E030
:102060000A01002045213C223046FFF7B9FD022835
:1020700000D2ECE200203080952080004E3020809D
:10208000004E01E00A0100204A2128223046FFF7D5
:10209000A7FD022800D2DAE20020308095208000DF
:1020A00050302080004E01E00A0100204F215022D4
:1020B0003046FFF795FD022800D2C8E200203080AC
:1020C0009520800052302080F848A221202200264E
:1020D0003346FFF713FD022800D2B9E20020F3498E
:1020E00008809520800054302080291DEF4E304616
:1020F00000F06AFE022800D2A9E20020308095207C
:10210000800056302080E94E802230462946FFF775
:1021100067FD022800D29AE20020308095208000DE
:1021200058302080291DE14E772220233046FFF7CA
:10213000E5FC022800D28AE2002030809520800051
:102140005A30208029460831D84E8B223046FFF77E
:1021500047FD022800D27AE20020308095208000DE
:102160005C30208029460D31D04E32223046FFF7B8
:1021700037FD022800D26AE20020308095208000DE
:102180005E30208029460E31C84ECF224F23304684
:10219000FFF7B4FC022800D259E2002030809520DD
:1021A00080006030208029460F31C04EFA22304630
:1021B000FFF716FD022800D249E20020308095206A
:1021C00080006230208029461031B84E49223046C6
:1021D000FFF706FD022800D239E20020308095206A
:1021E00080006430208029461131B04E06223046EE
:1021F000FFF7F6FC022800D229E20020308095206B
:1022000080006630208029461231A84E02223046D6
:10221000FFF7E6FC022800D219E20020308095206A
:1022200080006830208029461331A04EF022C02360
:102230003046FFF763FC022800D208E2002030801D
:10224000952080006A30208029461531974EC022A3
:1022500040233046FFF752FC022800D2F7E100206D
:102260003080952080006C302080294616318F4EBA
:102270005E220E233046FFF741FC022800D2E6E141
:1022800000203080952080006E3020802946173154
:10229000864EC02230461346FFF730FC022800D29B
:1022A000D5E10020308095208000703020802946C4
:1022B00018317E4E3C2230461346FFF71FFC0228A1
:1022C00000D2C4E100203080952080007230208050
:1022D00029461931754E0F2209233046FFF70EFCAF
:1022E000022800D2B3E100203080952080007430B5
:1022F0002080009729461A316C4F00263846324616
:10230000FFF76EFC022800D2A2E100203880952061
:10231000800076302080009F009729461F31634F50
:102320003F22002638463346FFF7E8FB022800D25A
:102330008EE1002038809520800078302080009F3A
:1023400029462031594EA72205233046FFF7D6FBF8
:10235000022800D27BE100203080952080007A3076
:10236000208029462231514EF022C0233046FFF70B
:10237000C5FB022800D26AE1002030809520800051
:102380007C30208029462331484EE0223046FFF73A
:1023900027FC022800D25AE10020308095208000DE
:1023A0007E30208029462431404EC02230461346DC
:1023B000FFF7A4FB022800D249E1002030809520DD
:1023C00080008030208029462B31384E382230461C
:1023D0001346FFF793FB022800D238E1002030803B
:1023E000952080008230208029462C312F4E1122EA
:1023F00030461346FFF782FB022800D227E1002077
:102400003080952080008430208029464D31274E31
:102410000E2208233046FFF771FB022800D216E196
:1024200000203080952080008630208029464E3163
:102430001E4E902230461346FFF760FB022800D262
:1024400005E10020308095208000883020802946DA
:102450005031164E4F2201233046FFF74FFB022822
:1024600000D2F4E000203080952080008A30208067
:10247000294651310D4E7F226E233046FFF73EFB39
:10248000022800D2E3E000203080952080008D30CB
:1024900020800097054F38882A494118242900D9FF
:1024A000DFE0880002A108588746C0460A010020E4
:1024B00075260008BF28000891260008BF280008DC
:1024C000B3260008BF280008D3260008BF2800084C
:1024D000F1260008BF28000811270008BF280008BF
:1024E00033270008BF28000851270008BF2800082C
:1024F00071270008BF28000891270008BF2800089E
:10250000B1270008BF280008D1270008BF2800080D
:10251000F1270008BF28000813280008BF2800087A
:1025200033280008BF28000853280008BF280008E7
:1025300073280008BF28000893280008BF28000857
:10254000AF280008ACFDFFFF002865D1E24800215C
:102550000180952080002C30388029462D31DE4EB8
:10256000304600F031FC022871D3002030809520E5
:1025700080002E30388029462D31D74E0822304633
:102580001346FFF7BBFA022861D300203080952064
:1025900080003030388029462E31CF4E64223046BC
:1025A000FFF71EFB022852D30020308095208000C8
:1025B0003130388029462F31C74E64223046FFF72C
:1025C0000FFB022843D3002030809520800032305A
:1025D00038803035C04E502230462946FFF700FB88
:1025E000022834D300203080952080003430388099
:1025F000B94D2F21284600F0E7FB022827D3002001
:1026000028809520800036303880B3482F21012261
:10261000FFF7E6FA02281AD30020388095208000C0
:1026200092302080009FAA4D1521284600F0CCFB57
:1026300002280CD300202880952080009430208030
:10264000A34815213F22FFF7CBFA022803D2002628
:10265000304601B0F0BDCF484770002020800326EF
:10266000F6E7002800D02AE19A4800210180952051
:102670008000388029463331964E304600F0A4FB66
:102680000228E4D30020308095208000801C388010
:10269000294633318F48B82200263346FFF72EFAF9
:1026A0000228D5D300208B49088095208000001D8A
:1026B000388029463431874E3F2214233046FFF7B5
:1026C0001DFA0228C3D30020308095208000801D91
:1026D0003880294635317F4E39223046FFF780FA5F
:1026E0000228B4D300203080952080000830388044
:1026F00029463631774E9B2203233046FFF7FEF9F9
:102700000228A4D300203080952080000A30388031
:10271000294637316F48412200263346FFF7EEF94C
:10272000022895D300206B490880952080000C304A
:10273000388029463831674EF4223046FFF750FA88
:10274000022884D300203080952080000E3038800D
:10275000294639315F4EF4223046FFF741FA02280C
:1027600000D274E70020308095208000103038803F
:1027700029463A31574EF4223046FFF731FA022803
:1027800000D264E70020308095208000123038802D
:1027900029463B314F4EF4223046FFF721FA0228FA
:1027A00000D254E70020308095208000143038801B
:1027B00029463C31474E55223046FFF711FA022890
:1027C00000D244E700203080952080001630388009
:1027D00029463D313F4E90223046FFF701FA02284C
:1027E00000D234E7002030809520800018303880F7
:1027F00029463E31374EF322F1233046FFF77EF96A
:10280000022800D223E700203080952080001A3073
:10281000388029463F312F4EE4223046FFF7E0F959
:10282000022800D213E700203080952080001C3061
:10283000388029464031274EE4223046FFF7D0F950
:10284000022800D203E700203080952080001E304F
:102850003880294641311F4EE4223046FFF7C0F947
:10286000022800D2F3E6002030809520800020303E
:10287000388029464231174ED0223046FFF7B0F952
:10288000022800D2E3E6002030809520800022302C
:102890003880104E2E21304600F096FA022800D2E1
:1028A000D5E600203080952080002430388009480B
:1028B0002E210122FFF794F9022800D2C7E600205A
:1028C0003880952080008F302080009FFFF71FFB0D
:1028D0000A0100200E01002052010020BA48417F69
:1028E000102008407047C046B748817F202008402C
:1028F0007047C046B448817F102008407047C046EA
:10290000B148417F082008407047C046AE48417F2B
:10291000042008407047C0462420AB49095C2020B1
:1029200008407047F7494878002809D03220085CF1
:102930003C2807D13320085C502803D10120704780
:1029400000207047002048707047C0462320F4499B
:10295000085C302202402420085C0C2101408818C9
:102960007047C046F548817F022008407047C04646
:10297000F248817F012008407047C046EF48817FC0
:10298000082008407047C046EC48817F042008407A
:102990007047C0461C01002070B504460088D52150
:1029A0004900884216D0FF26AA36B04205D000283A
:1029B00019D10F480021018026800D4D2321284682
:1029C00000F002FA022801D200250FE00020288042
:1029D000701C208006482321012200252B46FFF78A
:1029E0008DF8022802D3002020800325284670BDE0
:1029F0000C01002070B504460088FF21D6318842C2
:102A000014D075218E00B04205D0002817D10E4891
:102A10000021018026800C4D2221284600F0D4F9A7
:102A200002280AD300202880701C2080064822211A
:102A30000422FFF7D5F8022801D2002070BD002043
:102A40002080032070BDC0461001002070B50446F0
:102A50000088E7214900884214D0FF26CE36B042D4
:102A600005D0002817D10E480021018026800C4D8A
:102A70002221284600F0A8F902280AD30020288045
:102A8000701C2080064822210822FFF7A9F802289E
:102A900001D2002070BD00202080032070BDC04600
:102AA0001201002070B50446008877218900884211
:102AB00014D0FF26DC36B04205D0002817D10E48CE
:102AC0000021018026800C4D2221284600F07CF94F
:102AD00002280AD300202880701C2080064822216A
:102AE0000222FFF77DF8022801D2002070BD0020ED
:102AF0002080032070BDC04614010020B0B50446FC
:102B000000880146A539052907D8C04679440979C6
:102B100049008F440914212E3B4800284DD12948F3
:102B200000210180A5202080264D1321284600F099
:102B30004BF902283FD300202880A6202080C64AD7
:102B40001B32204D13212846FFF70EF8022832D3FE
:102B500000202880A7202080BF4A1E32194D18214E
:102B60002846FFF701F8022825D300202880A82056
:102B70002080B94A1F32134D19212846FEF7F4FF71
:102B8000022818D300202880A9202080B24A2132B0
:102B90000C4D1C212846FEF7E7FF02280BD300202E
:102BA0002880AA202080AC4A223206481D21FEF748
:102BB000DBFF022801D20020B0BD002020800320CE
:102BC000B0BDC046160100201C010020B0B504466F
:102BD00000880146C239092909D8C04679440979D3
:102BE00049008F440C1724313E4B5865727F0028F2
:102BF00000D081E0424800210180C2202080404D69
:102C00000E21284600F0E0F8022873D30020288027
:102C1000C3202080F44A1632394D0E212846FEF793
:102C2000A3FF022866D300202880C4202080EE4A1B
:102C30001732334D0F212846FEF796FF022859D34D
:102C400000202880C5202080E74A18322C4D102112
:102C50002846FEF789FF02284CD300202880C62092
:102C60002080E14A1932264D11212846FEF77CFFCB
:102C700002283FD300202880C7202080DA4A213252
:102C80001F4D1C212846FEF76FFF022832D300207B
:102C90002880C8202080D44A3232194D4521284648
:102CA000FEF762FF022825D300202880C92020805B
:102CB000CD4A3332124D4F212846FEF755FF0228E8
:102CC00018D300202880CA202080C74A26320C4D05
:102CD00051212846FEF748FF02280BD30020288008
:102CE000CB202080C04A273205485221FEF73CFF06
:102CF000022801D20020B0BD002020800320B0BDFA
:102D0000180100201C0100203020B749085C7047E2
:102D1000B548C0897047C046B34840897047C0462F
:102D20001C0100200548C07DC10601D404A07047E5
:102D30000007800E04A108587047C0461C010020FF
:102D40004E4F4E45000000007348000849480008F7
:102D5000554800083C4800087C48000880480008A6
:102D6000344800082C480008634800084F48000811
:102D7000414800085B4800086D4800087B4800088F
:102D8000694800088448000880B59748408A04498B
:102D90004018FDF7FDF90349FDF7BCF980BDC046B9
:102DA000D1F8FFFF713DDA408F48008A0521414389
:102DB000503908B27047C0468B4880897047C0467A
:102DC000894800897047C046F0B581B00446008844
:102DD000322805DC0D4600280FD02F2812D02EE017
:102DE000332821D038282AD11A481C4900252A46E0
:102DF000FEF7F6FE022822D224E0164800210180C8
:102E00002F202080784F3A1D124E01213046FEF7C8
:102E1000ABFE02280FD33879290A0ED001280ED133
:102E200000203080332020800A4824218122FEF7B0
:102E3000D7FE022803D2002504E0012805D1002096
:102E400020800325284601B0F0BD002030803820C6
:102E50002080C9E71A0100201C010020FF010000AA
:102E600070B5044600889321490088420BDC5C4918
:102E70004118052917D8C0467944097949008F447B
:102E80001B2938475665FF210A462832904200D157
:102E90007AE02522D200904200D184E02A31884293
:102EA00000D18FE098E0002800D095E04D48002147
:102EB0000180FF20143020804A4D12212846FFF760
:102EC00083FF022800D285E000202880FF201430F4
:102ED000401C2080444A1A32424D12212846FEF7F7
:102EE00043FE022876D300202880FF201430801C67
:102EF00020803D4A1C323B4D14212846FEF734FE0B
:102F0000022867D300202880FF201430C01C2080B6
:102F1000354A1D32334D15212846FEF725FE02287D
:102F200058D300202880FF201430001D20802E4A16
:102F30001E322C4D18212846FEF716FE022849D3D2
:102F400000202880FF201430401D2080264E32466D
:102F50002032244D1A212846FEF706FE022839D3D6
:102F60002020315C8A0914217A4412795200974456
:102F700001030405502100E028213154002028805D
:102F8000FF20143014302080174A2332154D2A2197
:102F90002846FEF7E9FD02281CD300202880FF20E8
:102FA000143015302080104A24320E4D2B21284633
:102FB000FEF7DAFD02280DD300202880FF20143010
:102FC00016302080084A253206482C21FEF7CCFD19
:102FD000022801D2002070BD00202080032070BD97
:102FE000EDFEFFFF500100201C010020B0B504469B
:102FF000008833494118052907D8C0467944097922
:1030000049008F440A172533414F002853D12D48DA
:1030100000210180FF209E3020802A4D202128465B
:10302000FFF7D2FE022844D300202880FF209E30E4
:10303000401C2080234D202101222846FEF7D0FD90
:10304000022836D300202880FF209E30801C20805C
:103050001C4D232101222846FEF7C2FD022828D359
:1030600000202880FF209E30C01C2080154D242188
:1030700020222846FEF7B4FD02281AD3002028801B
:10308000FF209E30001D20800E4D24214022284626
:10309000FEF7A6FD02280CD300202880FF209E30DA
:1030A000401D2080074824218022FEF799FD022838
:1030B00001D20020B0BD002020800320B0BDC0465A
:1030C00063FEFFFF5401002080B5FDF745FDFDF7CD
:1030D00025FDFDF71FFCFDF7DFFBFDF7A3FDFDF769
:1030E000FFFCE1204002FDF7C9FDFDF759FC80BD62
:1030F00002480168491C01607047C04680020020F8
:1031000007480168074A0A40074909681143012234
:1031100053030B430360D006044908607047C04660
:10312000041002400000FFFF040FFF1F08ED00E045
:1031300010B581B035480168090615D566490A7889
:10314000664B1B789C1A012C03D0002B06D1FF2A5A
:1031500004D1C16880229143C16005E0521C0A700D
:10316000D1B25F4A515C4160016889061AD5644951
:103170000A781F2A09D1634A1278002A0AD000224D
:103180000A704168344AD1770CE05E4B1B789B1A79
:10319000012B02D11649012203E043682E4CA354AF
:1031A000521C0A700168C90705D001680091009996
:1031B0004168009100990168890705D5016800916F
:1031C00000994168009100990168090705D50168D7
:1031D000009100994168009100990168490705D55F
:1031E00001680091009940680090009801B010BDFE
:1031F0008402002005480168890604D4C0680006DE
:1032000001D40020704701207047C04600380140BB
:10321000F0B50246002000291BD0394B1B78394CF1
:1032200026780D4DF7B21F2F05D1002B12D00026A6
:1032300026702F4606E07F1C9F420BD0761C26701E
:10324000F7B2EF193F781770C9B2491CCFB28F425D
:10325000E8D0F0BD0120F0BD56010020F0B582B0ED
:1032600002460020002935D001901B4805781B4EEE
:10327000307800910F461478002C16D0FF2806D124
:10328000002D26D0FF2016490C54002005E0431CD9
:10329000AB421ED012490C54184630707F1E521C8F
:1032A000002FE8D10098002811D00E4802681206BD
:1032B0000DD4094C2278521CD3B20949C95C03468B
:1032C000083B19602270016880220A43026001985D
:1032D00000E0012002B0F0BDE0000020A0020020CC
:1032E000760100200C380140054801780548027835
:1032F000881A01D81F3001E0D0430818C0B27047C7
:1033000085020020C600002084B0FFF7DDFEFDF737
:10331000ABFF3220FEF7B2FA10A000F019FD15A0A5
:1033200000F016FD1BA000F013FD1F4D28780028AB
:1033300004D0410001A8FCF7E2FE01200021002892
:103340000846FBD0002701AC184E02CE2046884725
:10335000A41C7F1C28788742F7D3EFE70A0A33536F
:10336000315020323137303020506F776572204233
:10337000616E6B000A506F77657265642062792018
:1033800053573633303620262050593332463030AA
:10339000324100000A544B57544C20323032362F01
:1033A00030332F31300A0000C8000020CC0000204C
:1033B000F0B583B0044600884B210191C900029109
:1033C0000146492814DC1039142929D8794409798F
:1033D00049008F442C363C3C3C3C56600A757F4388
:1033E00094463C3C3C3C3CB3BD00F14800685EE088
:1033F000573906290ED849007944898849008F44F5
:103400000600A901C4012600260026002A00E8487B
:10341000006895E14A2800D160E14B2817D168E1A6
:10342000002814D1E3480021018010202080E14DC4
:103430002846FEF7C5FC022816D30020288011205C
:103440002080DC48FEF7FCFC02280DD30FE00020B2
:103450002080032009E0D6480068A3E1D448006832
:1034600044E0D348006856E0002003B0F0BDD248E5
:103470000188D2A000F06CFCCE480021018016200B
:103480002080CC4D2846FEF741FA0228ECD30020DC
:10349000288017202080C748FFF730FB0228E3D39D
:1034A00018202080CC4800681830C1490860CA49FB
:1034B00009688842D8D2BF480021018019202080A5
:1034C000BC4D2846FFF7CCFC0228CDD30020288035
:1034D0001A202080B748FFF779FB0228C4D31B20AD
:1034E0002080BD4800681830B1490860BA490968B1
:1034F0008842B9D2AF48002101801C202080AD480D
:10350000FEF7AEFB0228AFD31D202080B248006832
:103510001830A7490860B04909688842A4D2FFF76B
:1035200001FA002819D1A44802990180ABA000F04B
:103530000FFCA04800210180232020809D4D2846BB
:10354000FEF73EFC02288FD3002028802420208014
:103550009848FEF775FC022886D3FFF7DDFBA64DE1
:1035600031280ED8287800280BD1FFF7FBF9002866
:1035700003D1FFF7FDF9002803D0A0480088471CBD
:1035800015E0FFF7B1F9002807D1FFF7F7F9002898
:1035900003D1FFF7F9F9002808D0FFF7E3F9042772
:1035A000002804D1FFF7E4F9002800D10027934E4A
:1035B0003780FFF7ADFB322813D8FFF7ADFB322879
:1035C0000FD8FFF7DBF900280BD1FFF7DDF9002852
:1035D00007D1FFF7C7F9002803D1FFF7C9F9002881
:1035E00002D0754802990180FFF77EF9002802D0C9
:1035F00083A000F0ADFBFFF77DF9002802D083A087
:1036000000F0A6FBFFF788F9014684A000290CD141
:10361000FFF776F9002802D084A000F099FBFFF7AD
:1036200075F901468848002901D000F091FBFFF7A9
:10363000A5F9002802D085A000F08AFBFFF7A4F9C5
:10364000002802D0874800F083FBFFF78BF90028A1
:1036500002D0854800F07CFBFFF78AF9002802D0F1
:10366000824800F075FBFFF75DFB0146804800F0E3
:103670006FFBFFF749FB01467E4800F069FBFFF74F
:103680009FFB01467C4800F063FBFFF745FB0146CA
:103690007A4800F05DFBFFF78FFB0146784800F0A9
:1036A00057FBFFF735FB0146764800F051FBFFF76B
:1036B0007BFB0146744800F04BFBFFF765FBFCF712
:1036C00072FD024671480B4600F042FB3088042828
:1036D00019D33848002101804A202080354D2846E2
:1036E000FFF7B4F9022800D2BEE600202880019836
:1036F00020803048FFF7D6F9022800D2B4E63F48D0
:103700000021018047E02878002844D02A48029907
:103710000180FFF733F900283DD1FFF735F9002884
:1037200039D1FFF71FF9002835D1FFF721F900281B
:1037300031D1572020802848006895301C49086006
:1037400025490968884200D38EE61A480021018085
:1037500058202080174D2846FFF7D0F9022800D2C4
:1037600082E6FFF70BF9002815D1FFF70DF90028C5
:1037700011D1FFF7F7F800280DD1FFF7F9F800286D
:1037800009D100202880592020800A48FFF732F90B
:10379000022800D268E65D2020800F4800681830BB
:1037A000034908600C490968884200D25FE65BE67D
:1037B000880200208C020020C40000200A0A5469FC
:1037C0006D65206265666F726520736C6565703A21
:1037D0002564306D73000000800200200A526549A4
:1037E0006E697469616C697A696E67205357363304
:1037F00030362E2E2E0000007E0200208602002091
:103800000A4368617267696E672E00000A44697333
:103810006368617267696E672E0000000A46756C06
:103820006C20436861726765642E00000A457272FD
:103830006F72204F63637572656420696E20436800
:10384000617267696E672E00924700080A506F72B6
:1038500074204331205061746820456E61626C654C
:10386000642E00007B4700084D47000864470008AD
:103870001E4800083E470008F2470008B14700080C
:1038800008480008C7470008DD470008244700082B
:1038900070B588B004460088692807D0002803D096
:1038A00000202080032013E069202080FFF71CFD0A
:1038B00000280CD0FFF718FD05466E463046294615
:1038C000FFF7A6FC30462946FFF7C8FCECE70020CE
:1038D00008B070BDF0B581B00446008801210091A8
:1038E000984EAB2808DC002819D08A283DD0A4289F
:1038F0000ED1954800686AE0AC2806D0C9280BD0E4
:10390000EA2805D19048006813E18F4800687CE000
:1039100000202080032012E18B4800689AE0FDF728
:1039200075FCFDF7A7FC894F3878002802D0401EAF
:10393000387002E086480021017000252846FDF716
:103940006DFC032820D0022815D0012869D18048B9
:103950000178012943D0002921D18B490D80012113
:103960000170282038708A2020808748FEF7FCF9F3
:10397000022856D2E2E076480178022915D00129C2
:1039800032D12820387049E072480099017072489D
:103990000078002805D071480178002926D00570EC
:1039A0003FE06F480121017083E03D706A4F387835
:1039B00000281DD06BA000F0CBF93D702846FDF724
:1039C0008FFCA42020806B4800685F49086069492B
:1039D0000968884200D3B1E0042030611EE0022172
:1039E0000170282038701CE0057017E0009917E07E
:1039F00061A000F0ADF90420306001203870AC20E7
:103A000020805C480068504908605A49096888422B
:103A100000D393E05B480078FDF762FC4D4800213D
:103A200001704D4D287800281AD0FEF757FF002866
:103A300003D1FEF78BFF002812D054A000F088F9C4
:103A400000202870FDF74CFCC92020804948006800
:103A50003D4908604749096888426FD204203061B7
:103A60003C4800783C490978002920D000281ED025
:103A700044490878430801227E2B154600D80025CA
:103A8000364B1B78002B009F00D12F46012F08D109
:103A9000C5B20122012D00D800221340FF22012BC4
:103AA00001D180180870C0B2FDF71AFC1BE0002895
:103AB00016D042480188891C018088B2404988425A
:103AC00011D340A000F044F96420FDF7D7FEBFF306
:103AD0004F8F414841490160BFF34F8F00BFFDE761
:103AE0003648002101803E480188002901D0491E46
:103AF00001803C480188491C01803B4D2A68002A0E
:103B000002D0002101800EE088B265280BD3FDF7BA
:103B10008FF9002807D135A000F01AF9FDF734FB22
:103B20002868401C2860EA20208012480068064966
:103B3000086010490968884200D2F0E6002001B010
:103B4000F0BDC046180400509402002090020020EE
:103B50009A020020980200207E0200209902002094
:103B6000760200200A0A574C4544204F6666210A17
:103B700000000000800200200A0A574C4544204FF4
:103B80006E210A00C70000209C0200200A0A536F21
:103B90006D6568696E672069732057726F6E672163
:103BA000556E61626C6520746F20456E61626C6554
:103BB00020574C4544210A0A000000008E020020D4
:103BC000DD0500000A0A526573657474696E672E1C
:103BD0002E2E2E2E2E0A0A000CED00E00400FA050F
:103BE000C4000020A2020020780200200A0A493204
:103BF00043205761746368446F6720547269676734
:103C00006572642121210A0A00000000F0B581B02C
:103C100004460088FF262036B04201D000282ED16D
:103C2000FFF7E8FA002807D141480088002803D1AF
:103C300016480068000702D430BF012521E0204665
:103C4000FEF7AAFE0028FAD001252846FDF716FE49
:103C50000F4801680222914301600E490B68042756
:103C60003B430B6030BF0368134303600868B843ED
:103C700008602046FFF7BAF90028FAD001E00325D2
:103C800000262680284601B0F0BDC0461004005032
:103C900010E000E010ED00E0F0B581B004460088CF
:103CA00041218D0083214900884203D0A84222D0BF
:103CB00000282AD14B20C600164F3878002806D09D
:103CC00015A000F045F80020387019480680194FFB
:103CD0003878002806D018A000F03AF80020387094
:103CE000134806801848017800290BD01749002294
:103CF0000A80027025801548FEF762F8022801D27A
:103D0000002005E0A91C012001E003200021218002
:103D100001B0F0BD7C0200200A0A495251206576AC
:103D2000656E74206F636375726564210A0000001C
:103D3000C40000207D0200200A4B455920507265C6
:103D400073736564210A0000760200209E02002041
:103D500083B0B0B591B0044615A80EC015AA009264
:103D600001AD2846214600F009F840212846FFF71A
:103D700075FA11B0B0BC01BC03B0004737B51446AA
:103D80000846064B6A46214600F0EAF804466946B2
:103D9000002000F081FC20463EBD0000994600084E
:103DA0002021020C01D010211046020A01D0104639
:103DB0000839020901D01046091F820801D01046B7
:103DC000891E420801D0881E7047081A704702E019
:103DD00008C8121F08C1002AFAD170477047002096
:103DE00001E001C1121F002AFBD17047F0B51FB4DA
:103DF00086B00998089A030D0021024314D0514857
:103E0000514A1818504305141198012810981AD0D7
:103E1000281A401C00264D4F4D49009601910490F0
:103E2000002812DA444211E01198012449A3012824
:103E300001D11098C1430698119A84600360C26052
:103E400041600BB0F0BD4042E4E70446210500208C
:103E50003F4A001C51410391029012E0E00707D055
:103E600032463B4601990098FCF7F4FA0191009024
:103E700032463B4610461946FCF7ECFA06460F461A
:103E80006410002CEAD10498039B0028029A099937
:103E9000089806DAFCF7DEFA019B009AFCF7DAFADA
:103EA00005E0FCF73FFB019B009AFCF73BFB044657
:103EB0000E460022284BFCF7CDFB03D80020C04360
:103EC000014607E00022254B20463146FCF710FA58
:103ED000FCF7A0FB102409E0002C0ADB0A220023D7
:103EE000FCF794F9079B30321A55641E02460A43C8
:103EF000F2D11122641C079B121B1C19119B012B70
:103F000003D0012308430ED10AE0084304D0112056
:103F100010900020119077E71098151A6D1E0BE095
:103F20001098824202DD00236D1C03E0824201DA18
:103F300000236D1E002BEED0069811998260C1609F
:103F400030C07EE701FCFFFF104D00000000144070
:103F50000000F03F300000000000F0430000E03FB0
:103F6000FFB597B00646002518E2252877D1002432
:103F70002746FD49049400E00443761C3278012072
:103F8000203A90400842F7D130782A280ED00222F9
:103F9000307801463039092916D804990A23594343
:103FA000303940181443761C0490F1E7189802C881
:103FB00004911890002904DA012040030443484288
:103FC000049002200443761C30782E2814D104205B
:103FD00004437078761C2A2809D11898761C80C86A
:103FE000189009E00A214F43303FC719761C3078FA
:103FF000014630390929F5D930786C2810D006DC13
:104000004C281AD068280ED06A2817D104E07428EA
:1040100013D07A2812D110E00120400504430CE0AF
:104020000121090501E0032109050C437178814252
:1040300003D1012000052418761C761C30781190DD
:1040400066280BD013DC58287DD009DC00287BD0F3
:104050004528F6D04628F4D047281AD1A5E118E023
:10406000632835D0642870D0652812D19DE170286E
:104070006CD008DC6728F1D069287BD06E280DD081
:104080006F2806D1BAE073282ED0752871D0782811
:1040900059D01A9A199990476D1C7EE16002400F21
:1040A000022809D003280DD00428189801680DD0E3
:1040B0000D60001D189070E11898EA1701680D60F6
:1040C0004A60F6E7189801680D80F2E70D70F0E796
:1040D00018986A4601781172001D189000205072DD
:1040E00002A80090012005E0189802C8189000204E
:1040F0000091C04361070DD5002101E00199491CE1
:104100000191B94212DA8142F8DB009A515C002930
:10411000F4D10BE0002101E00199491C0191814299
:10412000FADB019A0099895C0029F5D1019904987C
:104130001A9B471A21463846199A00F097FA0199B6
:10414000401945180BE04FE02CE113E04EE00098D9
:1041500000990078491C00911A9A19999047019882
:10416000401E0190401CF2D1214638461A9B199AF4
:1041700010E137E00A200021009001916002410F18
:10418000022907D0189A01CA1892C2179446032927
:1041900008D00AE01898C01DC108C90005C91891C7
:1041A000944607E000B2C2179446042902D140B2F7
:1041B000C1178C4600226146944506DA0A46002162
:1041C000404291418C462D2102E0210504D52B214E
:1041D0006A461173012103E0E10701D02021F7E7CE
:1041E000029155E00A200AE0102008E0102000901B
:1041F0000021042004430191082703E00820002146
:10420000019100906002410F022907D0189A01CA5B
:10421000189200229446032908D008E01898C01D7F
:10422000C108C90005C91891944603E080B2042969
:1042300000D1C0B200210291210729D5119970291E
:1042400006D0009A1021019B4A401A4305D00EE087
:1042500040216A461173012108E06146014306D0FE
:1042600030216A4611731199517302210291009A0B
:104270000821019B4A401A430AD16146014301D1FA
:10428000610705D530216A46117301217F1E029115
:104290001199582904D035A10E910DA90D910DE069
:1042A00037A1F9E76146019B009AFBF7AFFF0E9B30
:1042B0008C469B5C0D9A521E0D9213706146014311
:1042C000F0D10D9805A9081A20300190600703D598
:1042D00001200004844300E001270198874201DDAA
:1042E000381A00E00020019900904118029809183E
:1042F0000498401A0490E00306D421461A9B199AA8
:10430000049800F0B3F94519002706E003A81A9AAB
:10431000C05D199990476D1C7F1C02988742F5DBA0
:10432000E0030CD521461A9B199A049800F09EF9D7
:10433000451904E01A9A3020199990476D1C00998C
:10434000481E00900029F5DC08E00D980D990078D2
:10435000491C0D911A9A199990476D1C0199481E94
:1043600001900029F1DC63E109280100303132338A
:1043700034353637383961626364656600000000A1
:10438000303132333435363738394142434445468B
:104390000000000000F05AF94519761C307800281A
:1043A00000D0E2E528461BB0F0BD600700D4062728
:1043B0001898C01DC108C90048680A680831C30FB1
:1043C000DB071891190001D09CA108E0210501D557
:1043D0009BA104E0E10701D09AA100E09AA143006B
:1043E00011985B08109165280CD006DC452809D08F
:1043F00046281DD0472841D141E0662818D06728BB
:104400003CD13CE00021112F01DB112000E0781CA1
:104410000191009008A911A8FFF7E8FC13990591F4
:104420000021119A15927F1C12980197009150E07B
:104430000120C00703900120019008A9009711A84E
:10444000FFF7D4FC139A149905920022119B009255
:1044500012981593059A0192002901D0104602E0A6
:10446000791C40180190381A01D5019804E04042A7
:10447000401E0090781C0190C01B029043E0012F69
:1044800000DA01270021112F01DD112000E038465C
:104490000191009008A911A8FFF7A8FC13990591B4
:1044A000119A0021129815920091019721070CD4BE
:1044B0000599B94201DB019900E00191012904DD70
:1044C000159A491E515C302906D0B84201DA011D07
:1044D00005DA0121029115E00199491EEDE7002856
:1044E00005DC0099411800910199091A03E0019A2D
:1044F000411C914200DD01910099401A401C02903C
:104500000120C0070390200706D402990198814238
:1045100002DB0020C043029000206946C87707AF45
:10452000012103980337C907884224D00220119043
:104530002B201290039800280CDA404203902D2083
:10454000129007E00A210398FBF741FE30317F1EED
:10455000039039701199481E11900029F2DC0398DC
:104560000028EFD1791E1298087030782021084079
:104570004530BF1E387006A8C01BC01D03901098A0
:104580000078002800D00120019941180298C01736
:104590000918039809180498401A401E0490E00373
:1045A00006D421461A9B199A049800F05FF8451921
:1045B00010980078002803D01A9A199990476D1C1A
:1045C000E00324D521461A9B199A049800F04EF86E
:1045D00045191CE00098002807DB009905988842DF
:1045E00003DD1598405C199901E0199930201A9A59
:1045F000904700986D1C401C00900298401E02904D
:10460000002804D11A9A2E20199990476D1C0199FF
:10461000481E01900029DDDC05E038781A9A7F1CDD
:10462000199990476D1C0399481E03900029F4DCEA
:1046300021461A9B199A0498ACE600002D00000050
:104640002B0000002000000000000000F8B5044628
:1046500000251E461746880404D405E0394620206C
:10466000B0476D1C641EF9D52846F8BDFFB5044659
:10467000002581B01E46C80301D5302700E0202761
:10468000880404D505E038460399B0476D1C641EC4
:10469000F9D5284605B0F0BD0A68531C0B601070B0
:1046A0007047000000000000000000000000000053
:1046B00000000000000000000000000000000000FA
:1046C00000000000010000000200000003000000E4
:1046D00004000000060000000700000008000000C1
:1046E00009000000000000000000000000000000C1
:1046F00000000000010000000200000003000000B4
:104700000400000000093D0000127A000024F400BB
:104710004086510100366E0100093D0000093D0050
:1047200000093D000909436869702054656D707285
:1047300061747572653A252E326627430A000A4372
:10474000617061636974793A25642525000A506FA8
:104750007274204131205061746820456E61626C32
:1047600065642E000A506F727420413220506174CB
:104770006820456E61626C65642E000A506F727429
:10478000204332205061746820456E61626C65641C
:104790002E000A4572726F72204F636375726564F2
:1047A00020696E204469736368617267696E672E61
:1047B0000009506F72744275732043757272656E92
:1047C000743A25646D410009426174746572792000
:1047D00043757272656E743A25646D41000A4E54D9
:1047E000432054656D707261747572653A25642753
:1047F00043000A506F727442757320566F6C746177
:1048000067653A25646D56000A4261747465727971
:1048100020566F6C746167653A25646D56000A50C6
:10482000726F746F636F6C3A202573005044285088
:104830005053290050442846495829005143332BEE
:1048400000564F4F43312E30005143322E3000502E
:1048500045322E30005143332E3000564F4F4334F3
:104860002E30005045312E31004146430053564F03
:104870004F4300554E4B4E4F574E0053464350004A
:10488000534350005546435300000000B048000811
:1048900000000020E8000000CE3D00089849000814
:1048A000E8000020C0050000DE3D00080000000018
:1048B00000000000000000000000000000000000F8
:1048C00000000000000000000000000000000000E8
:1048D00000000000000000000000000000000000D8
:1048E00000000000000000000000000000000000C8
:1048F00000000000000000000000000000000000B8
:1049000000000000000000000000000000000000A7
:104910000000000000000000000000000000000097
:104920000000000000000000000000000000000087
:104930000000000000000000000000000000000077
:104940000000000000000000000000000000000067
:104950000000000000000000000000000000000057
:104960000000000000000000000000000000000047
:1049700000127A0058021F7F0500000091380008DD
:10498000D5380008993C0008B13300080D3C0008F8
:08499000FF0000000000000020
:04000005080000C12E
:00000001FF
